{
  "_format": "hh-sol-artifact-1",
  "contractName": "KittyContract",
  "sourceName": "contracts/KittyContract.sol",
  "abi": [
    {
      "inputs": [],
      "stateMutability": "nonpayable",
      "type": "constructor"
    },
    {
      "anonymous": false,
      "inputs": [
        {
          "indexed": true,
          "internalType": "address",
          "name": "owner",
          "type": "address"
        },
        {
          "indexed": true,
          "internalType": "address",
          "name": "approved",
          "type": "address"
        },
        {
          "indexed": true,
          "internalType": "uint256",
          "name": "tokenId",
          "type": "uint256"
        }
      ],
      "name": "Approval",
      "type": "event"
    },
    {
      "anonymous": false,
      "inputs": [
        {
          "indexed": true,
          "internalType": "address",
          "name": "owner",
          "type": "address"
        },
        {
          "indexed": true,
          "internalType": "address",
          "name": "operator",
          "type": "address"
        },
        {
          "indexed": false,
          "internalType": "bool",
          "name": "approved",
          "type": "bool"
        }
      ],
      "name": "ApprovalForAll",
      "type": "event"
    },
    {
      "anonymous": false,
      "inputs": [
        {
          "indexed": true,
          "internalType": "address",
          "name": "owner",
          "type": "address"
        },
        {
          "indexed": true,
          "internalType": "uint256",
          "name": "kittyId",
          "type": "uint256"
        }
      ],
      "name": "Birth",
      "type": "event"
    },
    {
      "anonymous": false,
      "inputs": [
        {
          "indexed": true,
          "internalType": "address",
          "name": "previousOwner",
          "type": "address"
        },
        {
          "indexed": true,
          "internalType": "address",
          "name": "newOwner",
          "type": "address"
        }
      ],
      "name": "OwnershipTransferred",
      "type": "event"
    },
    {
      "anonymous": false,
      "inputs": [
        {
          "indexed": true,
          "internalType": "address",
          "name": "from",
          "type": "address"
        },
        {
          "indexed": true,
          "internalType": "address",
          "name": "to",
          "type": "address"
        },
        {
          "indexed": true,
          "internalType": "uint256",
          "name": "tokenId",
          "type": "uint256"
        }
      ],
      "name": "Transfer",
      "type": "event"
    },
    {
      "inputs": [
        {
          "internalType": "uint256",
          "name": "momId",
          "type": "uint256"
        },
        {
          "internalType": "uint256",
          "name": "dadId",
          "type": "uint256"
        }
      ],
      "name": "_mixDna",
      "outputs": [
        {
          "internalType": "uint256",
          "name": "",
          "type": "uint256"
        }
      ],
      "stateMutability": "view",
      "type": "function"
    },
    {
      "inputs": [
        {
          "internalType": "address",
          "name": "to",
          "type": "address"
        },
        {
          "internalType": "uint256",
          "name": "tokenId",
          "type": "uint256"
        }
      ],
      "name": "approve",
      "outputs": [],
      "stateMutability": "nonpayable",
      "type": "function"
    },
    {
      "inputs": [
        {
          "internalType": "address",
          "name": "owner",
          "type": "address"
        }
      ],
      "name": "balanceOf",
      "outputs": [
        {
          "internalType": "uint256",
          "name": "",
          "type": "uint256"
        }
      ],
      "stateMutability": "view",
      "type": "function"
    },
    {
      "inputs": [
        {
          "internalType": "uint256",
          "name": "momId",
          "type": "uint256"
        },
        {
          "internalType": "uint256",
          "name": "dadId",
          "type": "uint256"
        }
      ],
      "name": "breed",
      "outputs": [
        {
          "internalType": "uint256",
          "name": "",
          "type": "uint256"
        }
      ],
      "stateMutability": "nonpayable",
      "type": "function"
    },
    {
      "inputs": [
        {
          "internalType": "uint256",
          "name": "genes",
          "type": "uint256"
        }
      ],
      "name": "createKittyGen0",
      "outputs": [],
      "stateMutability": "payable",
      "type": "function"
    },
    {
      "inputs": [
        {
          "internalType": "uint256",
          "name": "tokenId",
          "type": "uint256"
        }
      ],
      "name": "getApproved",
      "outputs": [
        {
          "internalType": "address",
          "name": "",
          "type": "address"
        }
      ],
      "stateMutability": "view",
      "type": "function"
    },
    {
      "inputs": [],
      "name": "getGen0Price",
      "outputs": [
        {
          "internalType": "uint256",
          "name": "",
          "type": "uint256"
        }
      ],
      "stateMutability": "view",
      "type": "function"
    },
    {
      "inputs": [
        {
          "internalType": "uint256",
          "name": "kittyId",
          "type": "uint256"
        }
      ],
      "name": "getKitty",
      "outputs": [
        {
          "internalType": "uint256",
          "name": "genes",
          "type": "uint256"
        },
        {
          "internalType": "uint256",
          "name": "birthTime",
          "type": "uint256"
        },
        {
          "internalType": "uint256",
          "name": "momId",
          "type": "uint256"
        },
        {
          "internalType": "uint256",
          "name": "dadId",
          "type": "uint256"
        },
        {
          "internalType": "uint32",
          "name": "generation",
          "type": "uint32"
        }
      ],
      "stateMutability": "view",
      "type": "function"
    },
    {
      "inputs": [
        {
          "internalType": "address",
          "name": "owner",
          "type": "address"
        },
        {
          "internalType": "address",
          "name": "operator",
          "type": "address"
        }
      ],
      "name": "isApprovedForAll",
      "outputs": [
        {
          "internalType": "bool",
          "name": "",
          "type": "bool"
        }
      ],
      "stateMutability": "view",
      "type": "function"
    },
    {
      "inputs": [],
      "name": "name",
      "outputs": [
        {
          "internalType": "string",
          "name": "",
          "type": "string"
        }
      ],
      "stateMutability": "view",
      "type": "function"
    },
    {
      "inputs": [],
      "name": "owner",
      "outputs": [
        {
          "internalType": "address",
          "name": "",
          "type": "address"
        }
      ],
      "stateMutability": "view",
      "type": "function"
    },
    {
      "inputs": [
        {
          "internalType": "uint256",
          "name": "tokenId",
          "type": "uint256"
        }
      ],
      "name": "ownerOf",
      "outputs": [
        {
          "internalType": "address",
          "name": "",
          "type": "address"
        }
      ],
      "stateMutability": "view",
      "type": "function"
    },
    {
      "inputs": [],
      "name": "renounceOwnership",
      "outputs": [],
      "stateMutability": "nonpayable",
      "type": "function"
    },
    {
      "inputs": [
        {
          "internalType": "address",
          "name": "from",
          "type": "address"
        },
        {
          "internalType": "address",
          "name": "to",
          "type": "address"
        },
        {
          "internalType": "uint256",
          "name": "tokenId",
          "type": "uint256"
        }
      ],
      "name": "safeTransferFrom",
      "outputs": [],
      "stateMutability": "nonpayable",
      "type": "function"
    },
    {
      "inputs": [
        {
          "internalType": "address",
          "name": "from",
          "type": "address"
        },
        {
          "internalType": "address",
          "name": "to",
          "type": "address"
        },
        {
          "internalType": "uint256",
          "name": "tokenId",
          "type": "uint256"
        },
        {
          "internalType": "bytes",
          "name": "_data",
          "type": "bytes"
        }
      ],
      "name": "safeTransferFrom",
      "outputs": [],
      "stateMutability": "nonpayable",
      "type": "function"
    },
    {
      "inputs": [
        {
          "internalType": "address",
          "name": "operator",
          "type": "address"
        },
        {
          "internalType": "bool",
          "name": "approved",
          "type": "bool"
        }
      ],
      "name": "setApprovalForAll",
      "outputs": [],
      "stateMutability": "nonpayable",
      "type": "function"
    },
    {
      "inputs": [
        {
          "internalType": "uint256",
          "name": "price",
          "type": "uint256"
        }
      ],
      "name": "setGen0Price",
      "outputs": [],
      "stateMutability": "nonpayable",
      "type": "function"
    },
    {
      "inputs": [
        {
          "internalType": "bytes4",
          "name": "interfaceId",
          "type": "bytes4"
        }
      ],
      "name": "supportsInterface",
      "outputs": [
        {
          "internalType": "bool",
          "name": "",
          "type": "bool"
        }
      ],
      "stateMutability": "view",
      "type": "function"
    },
    {
      "inputs": [],
      "name": "symbol",
      "outputs": [
        {
          "internalType": "string",
          "name": "",
          "type": "string"
        }
      ],
      "stateMutability": "view",
      "type": "function"
    },
    {
      "inputs": [
        {
          "internalType": "uint256",
          "name": "tokenId",
          "type": "uint256"
        }
      ],
      "name": "tokenURI",
      "outputs": [
        {
          "internalType": "string",
          "name": "",
          "type": "string"
        }
      ],
      "stateMutability": "view",
      "type": "function"
    },
    {
      "inputs": [],
      "name": "totalSupply",
      "outputs": [
        {
          "internalType": "uint256",
          "name": "",
          "type": "uint256"
        }
      ],
      "stateMutability": "view",
      "type": "function"
    },
    {
      "inputs": [
        {
          "internalType": "address",
          "name": "from",
          "type": "address"
        },
        {
          "internalType": "address",
          "name": "to",
          "type": "address"
        },
        {
          "internalType": "uint256",
          "name": "tokenId",
          "type": "uint256"
        }
      ],
      "name": "transferFrom",
      "outputs": [],
      "stateMutability": "nonpayable",
      "type": "function"
    },
    {
      "inputs": [
        {
          "internalType": "address",
          "name": "newOwner",
          "type": "address"
        }
      ],
      "name": "transferOwnership",
      "outputs": [],
      "stateMutability": "nonpayable",
      "type": "function"
    },
    {
      "inputs": [
        {
          "internalType": "uint256",
          "name": "amount",
          "type": "uint256"
        }
      ],
      "name": "withdraw",
      "outputs": [],
      "stateMutability": "nonpayable",
      "type": "function"
    }
  ],
  "bytecode": "0x60806040526045600760006101000a81548163ffffffff021916908363ffffffff160217905550600060085567016345785d8a00006009553480156200004457600080fd5b506040518060400160405280600c81526020017f5265696e204b69747469657300000000000000000000000000000000000000008152506040518060400160405280600281526020017f524b000000000000000000000000000000000000000000000000000000000000815250620000d1620000c56200013660201b60201c565b6200013e60201b60201c565b8160019080519060200190620000e992919062000837565b5080600290805190602001906200010292919062000837565b5050506200012f60008060006200011e6200020260201b60201c565b633b9aca006200022b60201b60201c565b5062000d81565b600033905090565b60008060009054906101000a900473ffffffffffffffffffffffffffffffffffffffff169050816000806101000a81548173ffffffffffffffffffffffffffffffffffffffff021916908373ffffffffffffffffffffffffffffffffffffffff1602179055508173ffffffffffffffffffffffffffffffffffffffff168173ffffffffffffffffffffffffffffffffffffffff167f8be0079c531659141344cd1fd0a4f28419497f9722a3daafe3b4186f6b6457e060405160405180910390a35050565b60008060009054906101000a900473ffffffffffffffffffffffffffffffffffffffff16905090565b6000806040518060a001604052808881526020014281526020018781526020018681526020018463ffffffff168152509050600a8190806001815401808255809150506001900390600052602060002090600502016000909190919091506000820151816000015560208201518160010155604082015181600201556060820151816003015560808201518160040160006101000a81548163ffffffff021916908363ffffffff160217905550505060006001600a80549050620002f0919062000b46565b90506200030485826200035660201b60201c565b808573ffffffffffffffffffffffffffffffffffffffff167fe3e9cb4c9675332e1e71c04808555c8071daa68327830cac01cc33d4087a64e960405160405180910390a3809250505095945050505050565b620003788282604051806020016040528060008152506200037c60201b60201c565b5050565b6200038e8383620003ea60201b60201c565b620003a36000848484620005e460201b60201c565b620003e5576040517f08c379a0000000000000000000000000000000000000000000000000000000008152600401620003dc9062000a56565b60405180910390fd5b505050565b600073ffffffffffffffffffffffffffffffffffffffff168273ffffffffffffffffffffffffffffffffffffffff1614156200045d576040517f08c379a0000000000000000000000000000000000000000000000000000000008152600401620004549062000a9a565b60405180910390fd5b6200046e816200079e60201b60201c565b15620004b1576040517f08c379a0000000000000000000000000000000000000000000000000000000008152600401620004a89062000a78565b60405180910390fd5b620004c5600083836200080a60201b60201c565b6001600460008473ffffffffffffffffffffffffffffffffffffffff1673ffffffffffffffffffffffffffffffffffffffff168152602001908152602001600020600082825462000517919062000ae9565b92505081905550816003600083815260200190815260200160002060006101000a81548173ffffffffffffffffffffffffffffffffffffffff021916908373ffffffffffffffffffffffffffffffffffffffff160217905550808273ffffffffffffffffffffffffffffffffffffffff16600073ffffffffffffffffffffffffffffffffffffffff167fddf252ad1be2c89b69c2b068fc378daa952ba7f163c4a11628f55a4df523b3ef60405160405180910390a4620005e0600083836200080f60201b60201c565b5050565b6000620006128473ffffffffffffffffffffffffffffffffffffffff166200081460201b6200156c1760201c565b1562000791578373ffffffffffffffffffffffffffffffffffffffff1663150b7a02620006446200013660201b60201c565b8786866040518563ffffffff1660e01b815260040162000668949392919062000a02565b602060405180830381600087803b1580156200068357600080fd5b505af1925050508015620006b757506040513d601f19601f82011682018060405250810190620006b49190620008fe565b60015b62000740573d8060008114620006ea576040519150601f19603f3d011682016040523d82523d6000602084013e620006ef565b606091505b5060008151141562000738576040517f08c379a00000000000000000000000000000000000000000000000000000000081526004016200072f9062000a56565b60405180910390fd5b805181602001fd5b63150b7a0260e01b7bffffffffffffffffffffffffffffffffffffffffffffffffffffffff1916817bffffffffffffffffffffffffffffffffffffffffffffffffffffffff19161491505062000796565b600190505b949350505050565b60008073ffffffffffffffffffffffffffffffffffffffff166003600084815260200190815260200160002060009054906101000a900473ffffffffffffffffffffffffffffffffffffffff1673ffffffffffffffffffffffffffffffffffffffff1614159050919050565b505050565b505050565b6000808273ffffffffffffffffffffffffffffffffffffffff163b119050919050565b828054620008459062000c21565b90600052602060002090601f016020900481019282620008695760008555620008b5565b82601f106200088457805160ff1916838001178555620008b5565b82800160010185558215620008b5579182015b82811115620008b457825182559160200191906001019062000897565b5b509050620008c49190620008c8565b5090565b5b80821115620008e3576000816000905550600101620008c9565b5090565b600081519050620008f88162000d67565b92915050565b6000602082840312156200091157600080fd5b60006200092184828501620008e7565b91505092915050565b620009358162000b81565b82525050565b6000620009488262000abc565b62000954818562000ac7565b93506200096681856020860162000beb565b620009718162000cb5565b840191505092915050565b60006200098b60328362000ad8565b9150620009988262000cc6565b604082019050919050565b6000620009b2601c8362000ad8565b9150620009bf8262000d15565b602082019050919050565b6000620009d960208362000ad8565b9150620009e68262000d3e565b602082019050919050565b620009fc8162000be1565b82525050565b600060808201905062000a1960008301876200092a565b62000a2860208301866200092a565b62000a376040830185620009f1565b818103606083015262000a4b81846200093b565b905095945050505050565b6000602082019050818103600083015262000a71816200097c565b9050919050565b6000602082019050818103600083015262000a9381620009a3565b9050919050565b6000602082019050818103600083015262000ab581620009ca565b9050919050565b600081519050919050565b600082825260208201905092915050565b600082825260208201905092915050565b600062000af68262000be1565b915062000b038362000be1565b9250827fffffffffffffffffffffffffffffffffffffffffffffffffffffffffffffffff0382111562000b3b5762000b3a62000c57565b5b828201905092915050565b600062000b538262000be1565b915062000b608362000be1565b92508282101562000b765762000b7562000c57565b5b828203905092915050565b600062000b8e8262000bc1565b9050919050565b60007fffffffff0000000000000000000000000000000000000000000000000000000082169050919050565b600073ffffffffffffffffffffffffffffffffffffffff82169050919050565b6000819050919050565b60005b8381101562000c0b57808201518184015260208101905062000bee565b8381111562000c1b576000848401525b50505050565b6000600282049050600182168062000c3a57607f821691505b6020821081141562000c515762000c5062000c86565b5b50919050565b7f4e487b7100000000000000000000000000000000000000000000000000000000600052601160045260246000fd5b7f4e487b7100000000000000000000000000000000000000000000000000000000600052602260045260246000fd5b6000601f19601f8301169050919050565b7f4552433732313a207472616e7366657220746f206e6f6e20455243373231526560008201527f63656976657220696d706c656d656e7465720000000000000000000000000000602082015250565b7f4552433732313a20746f6b656e20616c7265616479206d696e74656400000000600082015250565b7f4552433732313a206d696e7420746f20746865207a65726f2061646472657373600082015250565b62000d728162000b95565b811462000d7e57600080fd5b50565b61390d8062000d916000396000f3fe60806040526004361061014b5760003560e01c806378927cd1116100b6578063c87b56dd1161006f578063c87b56dd1461048e578063d5a776ca146104cb578063d9ecad7b146104e7578063e985e9c514610524578063e98b7f4d14610561578063f2fde38b146105a25761014b565b806378927cd1146103805780638da5cb5b146103a9578063959bb970146103d457806395d89b4114610411578063a22cb4651461043c578063b88d4fde146104655761014b565b80632e1a7d4d116101085780632e1a7d4d1461027257806342842e0e1461029b57806354637f21146102c45780636352211e146102ef57806370a082311461032c578063715018a6146103695761014b565b806301ffc9a71461015057806306fdde031461018d578063081812fc146101b8578063095ea7b3146101f557806318160ddd1461021e57806323b872dd14610249575b600080fd5b34801561015c57600080fd5b5061017760048036038101906101729190612759565b6105cb565b6040516101849190612c36565b60405180910390f35b34801561019957600080fd5b506101a26106ad565b6040516101af9190612c51565b60405180910390f35b3480156101c457600080fd5b506101df60048036038101906101da91906127ab565b61073f565b6040516101ec9190612bcf565b60405180910390f35b34801561020157600080fd5b5061021c6004803603810190610217919061271d565b6107c4565b005b34801561022a57600080fd5b506102336108dc565b6040516102409190612ef3565b60405180910390f35b34801561025557600080fd5b50610270600480360381019061026b9190612617565b6108e9565b005b34801561027e57600080fd5b50610299600480360381019061029491906127ab565b610949565b005b3480156102a757600080fd5b506102c260048036038101906102bd9190612617565b610a0f565b005b3480156102d057600080fd5b506102d9610a2f565b6040516102e69190612ef3565b60405180910390f35b3480156102fb57600080fd5b50610316600480360381019061031191906127ab565b610a39565b6040516103239190612bcf565b60405180910390f35b34801561033857600080fd5b50610353600480360381019061034e91906125b2565b610aeb565b6040516103609190612ef3565b60405180910390f35b34801561037557600080fd5b5061037e610ba3565b005b34801561038c57600080fd5b506103a760048036038101906103a291906127ab565b610c2b565b005b3480156103b557600080fd5b506103be610cb1565b6040516103cb9190612bcf565b60405180910390f35b3480156103e057600080fd5b506103fb60048036038101906103f691906127d4565b610cda565b6040516104089190612ef3565b60405180910390f35b34801561041d57600080fd5b50610426610f3d565b6040516104339190612c51565b60405180910390f35b34801561044857600080fd5b50610463600480360381019061045e91906126e1565b610fcf565b005b34801561047157600080fd5b5061048c60048036038101906104879190612666565b610fe5565b005b34801561049a57600080fd5b506104b560048036038101906104b091906127ab565b611047565b6040516104c29190612c51565b60405180910390f35b6104e560048036038101906104e091906127ab565b6110ee565b005b3480156104f357600080fd5b5061050e600480360381019061050991906127d4565b61122f565b60405161051b9190612ef3565b60405180910390f35b34801561053057600080fd5b5061054b600480360381019061054691906125db565b611350565b6040516105589190612c36565b60405180910390f35b34801561056d57600080fd5b50610588600480360381019061058391906127ab565b6113e4565b604051610599959493929190612f0e565b60405180910390f35b3480156105ae57600080fd5b506105c960048036038101906105c491906125b2565b611474565b005b60007f80ac58cd000000000000000000000000000000000000000000000000000000007bffffffffffffffffffffffffffffffffffffffffffffffffffffffff1916827bffffffffffffffffffffffffffffffffffffffffffffffffffffffff1916148061069657507f5b5e139f000000000000000000000000000000000000000000000000000000007bffffffffffffffffffffffffffffffffffffffffffffffffffffffff1916827bffffffffffffffffffffffffffffffffffffffffffffffffffffffff1916145b806106a657506106a58261158f565b5b9050919050565b6060600180546106bc906131d5565b80601f01602080910402602001604051908101604052809291908181526020018280546106e8906131d5565b80156107355780601f1061070a57610100808354040283529160200191610735565b820191906000526020600020905b81548152906001019060200180831161071857829003601f168201915b5050505050905090565b600061074a826115f9565b610789576040517f08c379a000000000000000000000000000000000000000000000000000000000815260040161078090612e33565b60405180910390fd5b6005600083815260200190815260200160002060009054906101000a900473ffffffffffffffffffffffffffffffffffffffff169050919050565b60006107cf82610a39565b90508073ffffffffffffffffffffffffffffffffffffffff168373ffffffffffffffffffffffffffffffffffffffff161415610840576040517f08c379a000000000000000000000000000000000000000000000000000000000815260040161083790612e93565b60405180910390fd5b8073ffffffffffffffffffffffffffffffffffffffff1661085f611665565b73ffffffffffffffffffffffffffffffffffffffff16148061088e575061088d81610888611665565b611350565b5b6108cd576040517f08c379a00000000000000000000000000000000000000000000000000000000081526004016108c490612db3565b60405180910390fd5b6108d7838361166d565b505050565b6000600a80549050905090565b6108fa6108f4611665565b82611726565b610939576040517f08c379a000000000000000000000000000000000000000000000000000000000815260040161093090612eb3565b60405180910390fd5b610944838383611804565b505050565b610951611665565b73ffffffffffffffffffffffffffffffffffffffff1661096f610cb1565b73ffffffffffffffffffffffffffffffffffffffff16146109c5576040517f08c379a00000000000000000000000000000000000000000000000000000000081526004016109bc90612e53565b60405180910390fd5b3373ffffffffffffffffffffffffffffffffffffffff166108fc829081150290604051600060405180830381858888f19350505050158015610a0b573d6000803e3d6000fd5b5050565b610a2a83838360405180602001604052806000815250610fe5565b505050565b6000600954905090565b6000806003600084815260200190815260200160002060009054906101000a900473ffffffffffffffffffffffffffffffffffffffff169050600073ffffffffffffffffffffffffffffffffffffffff168173ffffffffffffffffffffffffffffffffffffffff161415610ae2576040517f08c379a0000000000000000000000000000000000000000000000000000000008152600401610ad990612df3565b60405180910390fd5b80915050919050565b60008073ffffffffffffffffffffffffffffffffffffffff168273ffffffffffffffffffffffffffffffffffffffff161415610b5c576040517f08c379a0000000000000000000000000000000000000000000000000000000008152600401610b5390612dd3565b60405180910390fd5b600460008373ffffffffffffffffffffffffffffffffffffffff1673ffffffffffffffffffffffffffffffffffffffff168152602001908152602001600020549050919050565b610bab611665565b73ffffffffffffffffffffffffffffffffffffffff16610bc9610cb1565b73ffffffffffffffffffffffffffffffffffffffff1614610c1f576040517f08c379a0000000000000000000000000000000000000000000000000000000008152600401610c1690612e53565b60405180910390fd5b610c296000611a6b565b565b610c33611665565b73ffffffffffffffffffffffffffffffffffffffff16610c51610cb1565b73ffffffffffffffffffffffffffffffffffffffff1614610ca7576040517f08c379a0000000000000000000000000000000000000000000000000000000008152600401610c9e90612e53565b60405180910390fd5b8060098190555050565b60008060009054906101000a900473ffffffffffffffffffffffffffffffffffffffff16905090565b600080600a8481548110610d17577f4e487b7100000000000000000000000000000000000000000000000000000000600052603260045260246000fd5b90600052602060002090600502016000015490506000600a8481548110610d67577f4e487b7100000000000000000000000000000000000000000000000000000000600052603260045260246000fd5b9060005260206000209060050201600001549050610d836124be565b600060ff42610d929190613281565b90506000600790506000600190505b60808111610ea5576000818460ff161614610e0a57606486610dc39190613281565b848360088110610dfc577f4e487b7100000000000000000000000000000000000000000000000000000000600052603260045260246000fd5b602002018181525050610e5a565b606485610e179190613281565b848360088110610e50577f4e487b7100000000000000000000000000000000000000000000000000000000600052603260045260246000fd5b6020020181815250505b606486610e679190613050565b9550606485610e769190613050565b94506000821115610e9157600182610e8e91906130db565b91505b600281610e9e9190613081565b9050610da1565b50600080600090505b6008811015610f2d57848160088110610ef0577f4e487b7100000000000000000000000000000000000000000000000000000000600052603260045260246000fd5b602002015182610f009190612ffa565b915060078114610f1a57606482610f179190613081565b91505b8080610f2590613238565b915050610eae565b5080965050505050505092915050565b606060028054610f4c906131d5565b80601f0160208091040260200160405190810160405280929190818152602001828054610f78906131d5565b8015610fc55780601f10610f9a57610100808354040283529160200191610fc5565b820191906000526020600020905b815481529060010190602001808311610fa857829003601f168201915b5050505050905090565b610fe1610fda611665565b8383611b2f565b5050565b610ff6610ff0611665565b83611726565b611035576040517f08c379a000000000000000000000000000000000000000000000000000000000815260040161102c90612eb3565b60405180910390fd5b61104184848484611c9c565b50505050565b6060611052826115f9565b611091576040517f08c379a000000000000000000000000000000000000000000000000000000000815260040161108890612e73565b60405180910390fd5b600061109b611cf8565b905060008151116110bb57604051806020016040528060008152506110e6565b806110c584611d0f565b6040516020016110d6929190612bab565b6040516020818303038152906040525b915050919050565b600760009054906101000a900463ffffffff1663ffffffff166008541061114a576040517f08c379a000000000000000000000000000000000000000000000000000000000815260040161114190612d13565b60405180910390fd5b611152610cb1565b73ffffffffffffffffffffffffffffffffffffffff163373ffffffffffffffffffffffffffffffffffffffff161415806111b857503073ffffffffffffffffffffffffffffffffffffffff163373ffffffffffffffffffffffffffffffffffffffff1614155b80156111c5575060095434145b611204576040517f08c379a00000000000000000000000000000000000000000000000000000000081526004016111fb90612ed3565b60405180910390fd5b6008600081548092919061121790613238565b919050555061122b81600080336000611ebc565b5050565b60003373ffffffffffffffffffffffffffffffffffffffff1661125184610a39565b73ffffffffffffffffffffffffffffffffffffffff16146112a7576040517f08c379a000000000000000000000000000000000000000000000000000000000815260040161129e90612c73565b60405180910390fd5b3373ffffffffffffffffffffffffffffffffffffffff166112c783610a39565b73ffffffffffffffffffffffffffffffffffffffff161461131d576040517f08c379a000000000000000000000000000000000000000000000000000000000815260040161131490612d93565b60405180910390fd5b60006113298484610cda565b905060006113378585611fdd565b90506113468286863385611ebc565b9250505092915050565b6000600660008473ffffffffffffffffffffffffffffffffffffffff1673ffffffffffffffffffffffffffffffffffffffff16815260200190815260200160002060008373ffffffffffffffffffffffffffffffffffffffff1673ffffffffffffffffffffffffffffffffffffffff16815260200190815260200160002060009054906101000a900460ff16905092915050565b600080600080600080600a8781548110611427577f4e487b7100000000000000000000000000000000000000000000000000000000600052603260045260246000fd5b9060005260206000209060050201905080600001548160010154826002015483600301548460040160009054906101000a900463ffffffff16955095509550955095505091939590929450565b61147c611665565b73ffffffffffffffffffffffffffffffffffffffff1661149a610cb1565b73ffffffffffffffffffffffffffffffffffffffff16146114f0576040517f08c379a00000000000000000000000000000000000000000000000000000000081526004016114e790612e53565b60405180910390fd5b600073ffffffffffffffffffffffffffffffffffffffff168173ffffffffffffffffffffffffffffffffffffffff161415611560576040517f08c379a000000000000000000000000000000000000000000000000000000000815260040161155790612cb3565b60405180910390fd5b61156981611a6b565b50565b6000808273ffffffffffffffffffffffffffffffffffffffff163b119050919050565b60007f01ffc9a7000000000000000000000000000000000000000000000000000000007bffffffffffffffffffffffffffffffffffffffffffffffffffffffff1916827bffffffffffffffffffffffffffffffffffffffffffffffffffffffff1916149050919050565b60008073ffffffffffffffffffffffffffffffffffffffff166003600084815260200190815260200160002060009054906101000a900473ffffffffffffffffffffffffffffffffffffffff1673ffffffffffffffffffffffffffffffffffffffff1614159050919050565b600033905090565b816005600083815260200190815260200160002060006101000a81548173ffffffffffffffffffffffffffffffffffffffff021916908373ffffffffffffffffffffffffffffffffffffffff160217905550808273ffffffffffffffffffffffffffffffffffffffff166116e083610a39565b73ffffffffffffffffffffffffffffffffffffffff167f8c5be1e5ebec7d5bd14f71427d1e84f3dd0314c0f7b2291e5b200ac8c7c3b92560405160405180910390a45050565b6000611731826115f9565b611770576040517f08c379a000000000000000000000000000000000000000000000000000000000815260040161176790612d73565b60405180910390fd5b600061177b83610a39565b90508073ffffffffffffffffffffffffffffffffffffffff168473ffffffffffffffffffffffffffffffffffffffff1614806117ea57508373ffffffffffffffffffffffffffffffffffffffff166117d28461073f565b73ffffffffffffffffffffffffffffffffffffffff16145b806117fb57506117fa8185611350565b5b91505092915050565b8273ffffffffffffffffffffffffffffffffffffffff1661182482610a39565b73ffffffffffffffffffffffffffffffffffffffff161461187a576040517f08c379a000000000000000000000000000000000000000000000000000000000815260040161187190612cd3565b60405180910390fd5b600073ffffffffffffffffffffffffffffffffffffffff168273ffffffffffffffffffffffffffffffffffffffff1614156118ea576040517f08c379a00000000000000000000000000000000000000000000000000000000081526004016118e190612d33565b60405180910390fd5b6118f58383836120ca565b61190060008261166d565b6001600460008573ffffffffffffffffffffffffffffffffffffffff1673ffffffffffffffffffffffffffffffffffffffff168152602001908152602001600020600082825461195091906130db565b925050819055506001600460008473ffffffffffffffffffffffffffffffffffffffff1673ffffffffffffffffffffffffffffffffffffffff16815260200190815260200160002060008282546119a79190612ffa565b92505081905550816003600083815260200190815260200160002060006101000a81548173ffffffffffffffffffffffffffffffffffffffff021916908373ffffffffffffffffffffffffffffffffffffffff160217905550808273ffffffffffffffffffffffffffffffffffffffff168473ffffffffffffffffffffffffffffffffffffffff167fddf252ad1be2c89b69c2b068fc378daa952ba7f163c4a11628f55a4df523b3ef60405160405180910390a4611a668383836120cf565b505050565b60008060009054906101000a900473ffffffffffffffffffffffffffffffffffffffff169050816000806101000a81548173ffffffffffffffffffffffffffffffffffffffff021916908373ffffffffffffffffffffffffffffffffffffffff1602179055508173ffffffffffffffffffffffffffffffffffffffff168173ffffffffffffffffffffffffffffffffffffffff167f8be0079c531659141344cd1fd0a4f28419497f9722a3daafe3b4186f6b6457e060405160405180910390a35050565b8173ffffffffffffffffffffffffffffffffffffffff168373ffffffffffffffffffffffffffffffffffffffff161415611b9e576040517f08c379a0000000000000000000000000000000000000000000000000000000008152600401611b9590612d53565b60405180910390fd5b80600660008573ffffffffffffffffffffffffffffffffffffffff1673ffffffffffffffffffffffffffffffffffffffff16815260200190815260200160002060008473ffffffffffffffffffffffffffffffffffffffff1673ffffffffffffffffffffffffffffffffffffffff16815260200190815260200160002060006101000a81548160ff0219169083151502179055508173ffffffffffffffffffffffffffffffffffffffff168373ffffffffffffffffffffffffffffffffffffffff167f17307eab39ab6107e8899845ad3d59bd9653f200f220920489ca2b5937696c3183604051611c8f9190612c36565b60405180910390a3505050565b611ca7848484611804565b611cb3848484846120d4565b611cf2576040517f08c379a0000000000000000000000000000000000000000000000000000000008152600401611ce990612c93565b60405180910390fd5b50505050565b606060405180602001604052806000815250905090565b60606000821415611d57576040518060400160405280600181526020017f30000000000000000000000000000000000000000000000000000000000000008152509050611eb7565b600082905060005b60008214611d89578080611d7290613238565b915050600a82611d829190613050565b9150611d5f565b60008167ffffffffffffffff811115611dcb577f4e487b7100000000000000000000000000000000000000000000000000000000600052604160045260246000fd5b6040519080825280601f01601f191660200182016040528015611dfd5781602001600182028036833780820191505090505b5090505b60008514611eb057600182611e1691906130db565b9150600a85611e259190613281565b6030611e319190612ffa565b60f81b818381518110611e6d577f4e487b7100000000000000000000000000000000000000000000000000000000600052603260045260246000fd5b60200101907effffffffffffffffffffffffffffffffffffffffffffffffffffffffffffff1916908160001a905350600a85611ea99190613050565b9450611e01565b8093505050505b919050565b6000806040518060a001604052808881526020014281526020018781526020018681526020018463ffffffff168152509050600a8190806001815401808255809150506001900390600052602060002090600502016000909190919091506000820151816000015560208201518160010155604082015181600201556060820151816003015560808201518160040160006101000a81548163ffffffff021916908363ffffffff160217905550505060006001600a80549050611f7f91906130db565b9050611f8b858261226b565b808573ffffffffffffffffffffffffffffffffffffffff167fe3e9cb4c9675332e1e71c04808555c8071daa68327830cac01cc33d4087a64e960405160405180910390a3809250505095945050505050565b600080600a848154811061201a577f4e487b7100000000000000000000000000000000000000000000000000000000600052603260045260246000fd5b906000526020600020906005020160040160009054906101000a900463ffffffff1690506000600a848154811061207a577f4e487b7100000000000000000000000000000000000000000000000000000000600052603260045260246000fd5b906000526020600020906005020160040160009054906101000a900463ffffffff16905060008163ffffffff168363ffffffff1610156120ba57816120bc565b825b905080935050505092915050565b505050565b505050565b60006120f58473ffffffffffffffffffffffffffffffffffffffff1661156c565b1561225e578373ffffffffffffffffffffffffffffffffffffffff1663150b7a0261211e611665565b8786866040518563ffffffff1660e01b81526004016121409493929190612bea565b602060405180830381600087803b15801561215a57600080fd5b505af192505050801561218b57506040513d601f19601f820116820180604052508101906121889190612782565b60015b61220e573d80600081146121bb576040519150601f19603f3d011682016040523d82523d6000602084013e6121c0565b606091505b50600081511415612206576040517f08c379a00000000000000000000000000000000000000000000000000000000081526004016121fd90612c93565b60405180910390fd5b805181602001fd5b63150b7a0260e01b7bffffffffffffffffffffffffffffffffffffffffffffffffffffffff1916817bffffffffffffffffffffffffffffffffffffffffffffffffffffffff191614915050612263565b600190505b949350505050565b612285828260405180602001604052806000815250612289565b5050565b61229383836122e4565b6122a060008484846120d4565b6122df576040517f08c379a00000000000000000000000000000000000000000000000000000000081526004016122d690612c93565b60405180910390fd5b505050565b600073ffffffffffffffffffffffffffffffffffffffff168273ffffffffffffffffffffffffffffffffffffffff161415612354576040517f08c379a000000000000000000000000000000000000000000000000000000000815260040161234b90612e13565b60405180910390fd5b61235d816115f9565b1561239d576040517f08c379a000000000000000000000000000000000000000000000000000000000815260040161239490612cf3565b60405180910390fd5b6123a9600083836120ca565b6001600460008473ffffffffffffffffffffffffffffffffffffffff1673ffffffffffffffffffffffffffffffffffffffff16815260200190815260200160002060008282546123f99190612ffa565b92505081905550816003600083815260200190815260200160002060006101000a81548173ffffffffffffffffffffffffffffffffffffffff021916908373ffffffffffffffffffffffffffffffffffffffff160217905550808273ffffffffffffffffffffffffffffffffffffffff16600073ffffffffffffffffffffffffffffffffffffffff167fddf252ad1be2c89b69c2b068fc378daa952ba7f163c4a11628f55a4df523b3ef60405160405180910390a46124ba600083836120cf565b5050565b604051806101000160405280600890602082028036833780820191505090505090565b60006124f46124ef84612f86565b612f61565b90508281526020810184848401111561250c57600080fd5b612517848285613193565b509392505050565b60008135905061252e8161387b565b92915050565b60008135905061254381613892565b92915050565b600081359050612558816138a9565b92915050565b60008151905061256d816138a9565b92915050565b600082601f83011261258457600080fd5b81356125948482602086016124e1565b91505092915050565b6000813590506125ac816138c0565b92915050565b6000602082840312156125c457600080fd5b60006125d28482850161251f565b91505092915050565b600080604083850312156125ee57600080fd5b60006125fc8582860161251f565b925050602061260d8582860161251f565b9150509250929050565b60008060006060848603121561262c57600080fd5b600061263a8682870161251f565b935050602061264b8682870161251f565b925050604061265c8682870161259d565b9150509250925092565b6000806000806080858703121561267c57600080fd5b600061268a8782880161251f565b945050602061269b8782880161251f565b93505060406126ac8782880161259d565b925050606085013567ffffffffffffffff8111156126c957600080fd5b6126d587828801612573565b91505092959194509250565b600080604083850312156126f457600080fd5b60006127028582860161251f565b925050602061271385828601612534565b9150509250929050565b6000806040838503121561273057600080fd5b600061273e8582860161251f565b925050602061274f8582860161259d565b9150509250929050565b60006020828403121561276b57600080fd5b600061277984828501612549565b91505092915050565b60006020828403121561279457600080fd5b60006127a28482850161255e565b91505092915050565b6000602082840312156127bd57600080fd5b60006127cb8482850161259d565b91505092915050565b600080604083850312156127e757600080fd5b60006127f58582860161259d565b92505060206128068582860161259d565b9150509250929050565b6128198161310f565b82525050565b61282881613121565b82525050565b600061283982612fb7565b6128438185612fcd565b93506128538185602086016131a2565b61285c8161336e565b840191505092915050565b600061287282612fc2565b61287c8185612fde565b935061288c8185602086016131a2565b6128958161336e565b840191505092915050565b60006128ab82612fc2565b6128b58185612fef565b93506128c58185602086016131a2565b80840191505092915050565b60006128de601483612fde565b91506128e98261337f565b602082019050919050565b6000612901603283612fde565b915061290c826133a8565b604082019050919050565b6000612924602683612fde565b915061292f826133f7565b604082019050919050565b6000612947602583612fde565b915061295282613446565b604082019050919050565b600061296a601c83612fde565b915061297582613495565b602082019050919050565b600061298d601883612fde565b9150612998826134be565b602082019050919050565b60006129b0602483612fde565b91506129bb826134e7565b604082019050919050565b60006129d3601983612fde565b91506129de82613536565b602082019050919050565b60006129f6602c83612fde565b9150612a018261355f565b604082019050919050565b6000612a19601483612fde565b9150612a24826135ae565b602082019050919050565b6000612a3c603883612fde565b9150612a47826135d7565b604082019050919050565b6000612a5f602a83612fde565b9150612a6a82613626565b604082019050919050565b6000612a82602983612fde565b9150612a8d82613675565b604082019050919050565b6000612aa5602083612fde565b9150612ab0826136c4565b602082019050919050565b6000612ac8602c83612fde565b9150612ad3826136ed565b604082019050919050565b6000612aeb602083612fde565b9150612af68261373c565b602082019050919050565b6000612b0e602f83612fde565b9150612b1982613765565b604082019050919050565b6000612b31602183612fde565b9150612b3c826137b4565b604082019050919050565b6000612b54603183612fde565b9150612b5f82613803565b604082019050919050565b6000612b77600d83612fde565b9150612b8282613852565b602082019050919050565b612b9681613179565b82525050565b612ba581613183565b82525050565b6000612bb782856128a0565b9150612bc382846128a0565b91508190509392505050565b6000602082019050612be46000830184612810565b92915050565b6000608082019050612bff6000830187612810565b612c0c6020830186612810565b612c196040830185612b8d565b8181036060830152612c2b818461282e565b905095945050505050565b6000602082019050612c4b600083018461281f565b92915050565b60006020820190508181036000830152612c6b8184612867565b905092915050565b60006020820190508181036000830152612c8c816128d1565b9050919050565b60006020820190508181036000830152612cac816128f4565b9050919050565b60006020820190508181036000830152612ccc81612917565b9050919050565b60006020820190508181036000830152612cec8161293a565b9050919050565b60006020820190508181036000830152612d0c8161295d565b9050919050565b60006020820190508181036000830152612d2c81612980565b9050919050565b60006020820190508181036000830152612d4c816129a3565b9050919050565b60006020820190508181036000830152612d6c816129c6565b9050919050565b60006020820190508181036000830152612d8c816129e9565b9050919050565b60006020820190508181036000830152612dac81612a0c565b9050919050565b60006020820190508181036000830152612dcc81612a2f565b9050919050565b60006020820190508181036000830152612dec81612a52565b9050919050565b60006020820190508181036000830152612e0c81612a75565b9050919050565b60006020820190508181036000830152612e2c81612a98565b9050919050565b60006020820190508181036000830152612e4c81612abb565b9050919050565b60006020820190508181036000830152612e6c81612ade565b9050919050565b60006020820190508181036000830152612e8c81612b01565b9050919050565b60006020820190508181036000830152612eac81612b24565b9050919050565b60006020820190508181036000830152612ecc81612b47565b9050919050565b60006020820190508181036000830152612eec81612b6a565b9050919050565b6000602082019050612f086000830184612b8d565b92915050565b600060a082019050612f236000830188612b8d565b612f306020830187612b8d565b612f3d6040830186612b8d565b612f4a6060830185612b8d565b612f576080830184612b9c565b9695505050505050565b6000612f6b612f7c565b9050612f778282613207565b919050565b6000604051905090565b600067ffffffffffffffff821115612fa157612fa061333f565b5b612faa8261336e565b9050602081019050919050565b600081519050919050565b600081519050919050565b600082825260208201905092915050565b600082825260208201905092915050565b600081905092915050565b600061300582613179565b915061301083613179565b9250827fffffffffffffffffffffffffffffffffffffffffffffffffffffffffffffffff03821115613045576130446132b2565b5b828201905092915050565b600061305b82613179565b915061306683613179565b925082613076576130756132e1565b5b828204905092915050565b600061308c82613179565b915061309783613179565b9250817fffffffffffffffffffffffffffffffffffffffffffffffffffffffffffffffff04831182151516156130d0576130cf6132b2565b5b828202905092915050565b60006130e682613179565b91506130f183613179565b925082821015613104576131036132b2565b5b828203905092915050565b600061311a82613159565b9050919050565b60008115159050919050565b60007fffffffff0000000000000000000000000000000000000000000000000000000082169050919050565b600073ffffffffffffffffffffffffffffffffffffffff82169050919050565b6000819050919050565b600063ffffffff82169050919050565b82818337600083830152505050565b60005b838110156131c05780820151818401526020810190506131a5565b838111156131cf576000848401525b50505050565b600060028204905060018216806131ed57607f821691505b6020821081141561320157613200613310565b5b50919050565b6132108261336e565b810181811067ffffffffffffffff8211171561322f5761322e61333f565b5b80604052505050565b600061324382613179565b91507fffffffffffffffffffffffffffffffffffffffffffffffffffffffffffffffff821415613276576132756132b2565b5b600182019050919050565b600061328c82613179565b915061329783613179565b9250826132a7576132a66132e1565b5b828206905092915050565b7f4e487b7100000000000000000000000000000000000000000000000000000000600052601160045260246000fd5b7f4e487b7100000000000000000000000000000000000000000000000000000000600052601260045260246000fd5b7f4e487b7100000000000000000000000000000000000000000000000000000000600052602260045260246000fd5b7f4e487b7100000000000000000000000000000000000000000000000000000000600052604160045260246000fd5b6000601f19601f8301169050919050565b7f4e6f7420746865206f776e6572206f66206d6f6d000000000000000000000000600082015250565b7f4552433732313a207472616e7366657220746f206e6f6e20455243373231526560008201527f63656976657220696d706c656d656e7465720000000000000000000000000000602082015250565b7f4f776e61626c653a206e6577206f776e657220697320746865207a65726f206160008201527f6464726573730000000000000000000000000000000000000000000000000000602082015250565b7f4552433732313a207472616e736665722066726f6d20696e636f72726563742060008201527f6f776e6572000000000000000000000000000000000000000000000000000000602082015250565b7f4552433732313a20746f6b656e20616c7265616479206d696e74656400000000600082015250565b7f47656e30206372656174696f6e206f766572206c696d69740000000000000000600082015250565b7f4552433732313a207472616e7366657220746f20746865207a65726f2061646460008201527f7265737300000000000000000000000000000000000000000000000000000000602082015250565b7f4552433732313a20617070726f766520746f2063616c6c657200000000000000600082015250565b7f4552433732313a206f70657261746f7220717565727920666f72206e6f6e657860008201527f697374656e7420746f6b656e0000000000000000000000000000000000000000602082015250565b7f4e6f7420746865206f776e6572206f6620646164000000000000000000000000600082015250565b7f4552433732313a20617070726f76652063616c6c6572206973206e6f74206f7760008201527f6e6572206e6f7220617070726f76656420666f7220616c6c0000000000000000602082015250565b7f4552433732313a2062616c616e636520717565727920666f7220746865207a6560008201527f726f206164647265737300000000000000000000000000000000000000000000602082015250565b7f4552433732313a206f776e657220717565727920666f72206e6f6e657869737460008201527f656e7420746f6b656e0000000000000000000000000000000000000000000000602082015250565b7f4552433732313a206d696e7420746f20746865207a65726f2061646472657373600082015250565b7f4552433732313a20617070726f76656420717565727920666f72206e6f6e657860008201527f697374656e7420746f6b656e0000000000000000000000000000000000000000602082015250565b7f4f776e61626c653a2063616c6c6572206973206e6f7420746865206f776e6572600082015250565b7f4552433732314d657461646174613a2055524920717565727920666f72206e6f60008201527f6e6578697374656e7420746f6b656e0000000000000000000000000000000000602082015250565b7f4552433732313a20617070726f76616c20746f2063757272656e74206f776e6560008201527f7200000000000000000000000000000000000000000000000000000000000000602082015250565b7f4552433732313a207472616e736665722063616c6c6572206973206e6f74206f60008201527f776e6572206e6f7220617070726f766564000000000000000000000000000000602082015250565b7f496e76616c696420707269636500000000000000000000000000000000000000600082015250565b6138848161310f565b811461388f57600080fd5b50565b61389b81613121565b81146138a657600080fd5b50565b6138b28161312d565b81146138bd57600080fd5b50565b6138c981613179565b81146138d457600080fd5b5056fea264697066735822122066dabc4a1969ec00a1ee74d3e0748e5c37900a99d2755dfcd806eed82fe4d70964736f6c63430008040033",
  "linkReferences": {},
  "deployedLinkReferences": {}
}