{
  "_format": "hh-sol-artifact-1",
  "contractName": "KittyContract",
  "sourceName": "contracts/KittyContract.sol",
  "abi": [
    {
      "inputs": [],
      "stateMutability": "nonpayable",
      "type": "constructor"
    },
    {
      "anonymous": false,
      "inputs": [
        {
          "indexed": true,
          "internalType": "address",
          "name": "owner",
          "type": "address"
        },
        {
          "indexed": true,
          "internalType": "address",
          "name": "approved",
          "type": "address"
        },
        {
          "indexed": true,
          "internalType": "uint256",
          "name": "tokenId",
          "type": "uint256"
        }
      ],
      "name": "Approval",
      "type": "event"
    },
    {
      "anonymous": false,
      "inputs": [
        {
          "indexed": true,
          "internalType": "address",
          "name": "owner",
          "type": "address"
        },
        {
          "indexed": true,
          "internalType": "address",
          "name": "operator",
          "type": "address"
        },
        {
          "indexed": false,
          "internalType": "bool",
          "name": "approved",
          "type": "bool"
        }
      ],
      "name": "ApprovalForAll",
      "type": "event"
    },
    {
      "anonymous": false,
      "inputs": [
        {
          "indexed": true,
          "internalType": "address",
          "name": "owner",
          "type": "address"
        },
        {
          "indexed": true,
          "internalType": "uint256",
          "name": "kittyId",
          "type": "uint256"
        }
      ],
      "name": "Birth",
      "type": "event"
    },
    {
      "anonymous": false,
      "inputs": [
        {
          "indexed": true,
          "internalType": "address",
          "name": "previousOwner",
          "type": "address"
        },
        {
          "indexed": true,
          "internalType": "address",
          "name": "newOwner",
          "type": "address"
        }
      ],
      "name": "OwnershipTransferred",
      "type": "event"
    },
    {
      "anonymous": false,
      "inputs": [
        {
          "indexed": true,
          "internalType": "address",
          "name": "from",
          "type": "address"
        },
        {
          "indexed": true,
          "internalType": "address",
          "name": "to",
          "type": "address"
        },
        {
          "indexed": true,
          "internalType": "uint256",
          "name": "tokenId",
          "type": "uint256"
        }
      ],
      "name": "Transfer",
      "type": "event"
    },
    {
      "inputs": [
        {
          "internalType": "address",
          "name": "to",
          "type": "address"
        },
        {
          "internalType": "uint256",
          "name": "tokenId",
          "type": "uint256"
        }
      ],
      "name": "approve",
      "outputs": [],
      "stateMutability": "nonpayable",
      "type": "function"
    },
    {
      "inputs": [
        {
          "internalType": "address",
          "name": "owner",
          "type": "address"
        }
      ],
      "name": "balanceOf",
      "outputs": [
        {
          "internalType": "uint256",
          "name": "",
          "type": "uint256"
        }
      ],
      "stateMutability": "view",
      "type": "function"
    },
    {
      "inputs": [
        {
          "internalType": "uint256",
          "name": "momId",
          "type": "uint256"
        },
        {
          "internalType": "uint256",
          "name": "dadId",
          "type": "uint256"
        }
      ],
      "name": "breed",
      "outputs": [
        {
          "internalType": "uint256",
          "name": "",
          "type": "uint256"
        }
      ],
      "stateMutability": "nonpayable",
      "type": "function"
    },
    {
      "inputs": [
        {
          "internalType": "uint256",
          "name": "genes",
          "type": "uint256"
        }
      ],
      "name": "createKittyGen0",
      "outputs": [],
      "stateMutability": "payable",
      "type": "function"
    },
    {
      "inputs": [
        {
          "internalType": "uint256",
          "name": "tokenId",
          "type": "uint256"
        }
      ],
      "name": "getApproved",
      "outputs": [
        {
          "internalType": "address",
          "name": "",
          "type": "address"
        }
      ],
      "stateMutability": "view",
      "type": "function"
    },
    {
      "inputs": [],
      "name": "getGen0Price",
      "outputs": [
        {
          "internalType": "uint256",
          "name": "",
          "type": "uint256"
        }
      ],
      "stateMutability": "view",
      "type": "function"
    },
    {
      "inputs": [
        {
          "internalType": "uint256",
          "name": "kittyId",
          "type": "uint256"
        }
      ],
      "name": "getKitty",
      "outputs": [
        {
          "internalType": "uint256",
          "name": "genes",
          "type": "uint256"
        },
        {
          "internalType": "uint256",
          "name": "birthTime",
          "type": "uint256"
        },
        {
          "internalType": "uint256",
          "name": "momId",
          "type": "uint256"
        },
        {
          "internalType": "uint256",
          "name": "dadId",
          "type": "uint256"
        },
        {
          "internalType": "uint32",
          "name": "generation",
          "type": "uint32"
        }
      ],
      "stateMutability": "view",
      "type": "function"
    },
    {
      "inputs": [
        {
          "internalType": "address",
          "name": "owner",
          "type": "address"
        },
        {
          "internalType": "address",
          "name": "operator",
          "type": "address"
        }
      ],
      "name": "isApprovedForAll",
      "outputs": [
        {
          "internalType": "bool",
          "name": "",
          "type": "bool"
        }
      ],
      "stateMutability": "view",
      "type": "function"
    },
    {
      "inputs": [],
      "name": "name",
      "outputs": [
        {
          "internalType": "string",
          "name": "",
          "type": "string"
        }
      ],
      "stateMutability": "view",
      "type": "function"
    },
    {
      "inputs": [],
      "name": "owner",
      "outputs": [
        {
          "internalType": "address",
          "name": "",
          "type": "address"
        }
      ],
      "stateMutability": "view",
      "type": "function"
    },
    {
      "inputs": [
        {
          "internalType": "uint256",
          "name": "tokenId",
          "type": "uint256"
        }
      ],
      "name": "ownerOf",
      "outputs": [
        {
          "internalType": "address",
          "name": "",
          "type": "address"
        }
      ],
      "stateMutability": "view",
      "type": "function"
    },
    {
      "inputs": [],
      "name": "renounceOwnership",
      "outputs": [],
      "stateMutability": "nonpayable",
      "type": "function"
    },
    {
      "inputs": [
        {
          "internalType": "address",
          "name": "from",
          "type": "address"
        },
        {
          "internalType": "address",
          "name": "to",
          "type": "address"
        },
        {
          "internalType": "uint256",
          "name": "tokenId",
          "type": "uint256"
        }
      ],
      "name": "safeTransferFrom",
      "outputs": [],
      "stateMutability": "nonpayable",
      "type": "function"
    },
    {
      "inputs": [
        {
          "internalType": "address",
          "name": "from",
          "type": "address"
        },
        {
          "internalType": "address",
          "name": "to",
          "type": "address"
        },
        {
          "internalType": "uint256",
          "name": "tokenId",
          "type": "uint256"
        },
        {
          "internalType": "bytes",
          "name": "_data",
          "type": "bytes"
        }
      ],
      "name": "safeTransferFrom",
      "outputs": [],
      "stateMutability": "nonpayable",
      "type": "function"
    },
    {
      "inputs": [
        {
          "internalType": "address",
          "name": "operator",
          "type": "address"
        },
        {
          "internalType": "bool",
          "name": "approved",
          "type": "bool"
        }
      ],
      "name": "setApprovalForAll",
      "outputs": [],
      "stateMutability": "nonpayable",
      "type": "function"
    },
    {
      "inputs": [
        {
          "internalType": "uint256",
          "name": "price",
          "type": "uint256"
        }
      ],
      "name": "setGen0Price",
      "outputs": [],
      "stateMutability": "nonpayable",
      "type": "function"
    },
    {
      "inputs": [
        {
          "internalType": "bytes4",
          "name": "interfaceId",
          "type": "bytes4"
        }
      ],
      "name": "supportsInterface",
      "outputs": [
        {
          "internalType": "bool",
          "name": "",
          "type": "bool"
        }
      ],
      "stateMutability": "view",
      "type": "function"
    },
    {
      "inputs": [],
      "name": "symbol",
      "outputs": [
        {
          "internalType": "string",
          "name": "",
          "type": "string"
        }
      ],
      "stateMutability": "view",
      "type": "function"
    },
    {
      "inputs": [
        {
          "internalType": "uint256",
          "name": "tokenId",
          "type": "uint256"
        }
      ],
      "name": "tokenURI",
      "outputs": [
        {
          "internalType": "string",
          "name": "",
          "type": "string"
        }
      ],
      "stateMutability": "view",
      "type": "function"
    },
    {
      "inputs": [],
      "name": "totalSupply",
      "outputs": [
        {
          "internalType": "uint256",
          "name": "",
          "type": "uint256"
        }
      ],
      "stateMutability": "view",
      "type": "function"
    },
    {
      "inputs": [
        {
          "internalType": "address",
          "name": "from",
          "type": "address"
        },
        {
          "internalType": "address",
          "name": "to",
          "type": "address"
        },
        {
          "internalType": "uint256",
          "name": "tokenId",
          "type": "uint256"
        }
      ],
      "name": "transferFrom",
      "outputs": [],
      "stateMutability": "nonpayable",
      "type": "function"
    },
    {
      "inputs": [
        {
          "internalType": "address",
          "name": "newOwner",
          "type": "address"
        }
      ],
      "name": "transferOwnership",
      "outputs": [],
      "stateMutability": "nonpayable",
      "type": "function"
    },
    {
      "inputs": [
        {
          "internalType": "uint256",
          "name": "amount",
          "type": "uint256"
        }
      ],
      "name": "withdraw",
      "outputs": [],
      "stateMutability": "nonpayable",
      "type": "function"
    }
  ],
  "bytecode": "0x60806040526045600760006101000a81548163ffffffff021916908363ffffffff160217905550600060085567016345785d8a00006009553480156200004457600080fd5b506040518060400160405280600c81526020017f5265696e204b69747469657300000000000000000000000000000000000000008152506040518060400160405280600281526020017f524b000000000000000000000000000000000000000000000000000000000000815250620000d1620000c56200013660201b60201c565b6200013e60201b60201c565b8160019080519060200190620000e992919062000837565b5080600290805190602001906200010292919062000837565b5050506200012f60008060006200011e6200020260201b60201c565b633b9aca006200022b60201b60201c565b5062000d81565b600033905090565b60008060009054906101000a900473ffffffffffffffffffffffffffffffffffffffff169050816000806101000a81548173ffffffffffffffffffffffffffffffffffffffff021916908373ffffffffffffffffffffffffffffffffffffffff1602179055508173ffffffffffffffffffffffffffffffffffffffff168173ffffffffffffffffffffffffffffffffffffffff167f8be0079c531659141344cd1fd0a4f28419497f9722a3daafe3b4186f6b6457e060405160405180910390a35050565b60008060009054906101000a900473ffffffffffffffffffffffffffffffffffffffff16905090565b6000806040518060a001604052808881526020014281526020018781526020018681526020018463ffffffff168152509050600a8190806001815401808255809150506001900390600052602060002090600502016000909190919091506000820151816000015560208201518160010155604082015181600201556060820151816003015560808201518160040160006101000a81548163ffffffff021916908363ffffffff160217905550505060006001600a80549050620002f0919062000b46565b90506200030485826200035660201b60201c565b808573ffffffffffffffffffffffffffffffffffffffff167fe3e9cb4c9675332e1e71c04808555c8071daa68327830cac01cc33d4087a64e960405160405180910390a3809250505095945050505050565b620003788282604051806020016040528060008152506200037c60201b60201c565b5050565b6200038e8383620003ea60201b60201c565b620003a36000848484620005e460201b60201c565b620003e5576040517f08c379a0000000000000000000000000000000000000000000000000000000008152600401620003dc9062000a56565b60405180910390fd5b505050565b600073ffffffffffffffffffffffffffffffffffffffff168273ffffffffffffffffffffffffffffffffffffffff1614156200045d576040517f08c379a0000000000000000000000000000000000000000000000000000000008152600401620004549062000a9a565b60405180910390fd5b6200046e816200079e60201b60201c565b15620004b1576040517f08c379a0000000000000000000000000000000000000000000000000000000008152600401620004a89062000a78565b60405180910390fd5b620004c5600083836200080a60201b60201c565b6001600460008473ffffffffffffffffffffffffffffffffffffffff1673ffffffffffffffffffffffffffffffffffffffff168152602001908152602001600020600082825462000517919062000ae9565b92505081905550816003600083815260200190815260200160002060006101000a81548173ffffffffffffffffffffffffffffffffffffffff021916908373ffffffffffffffffffffffffffffffffffffffff160217905550808273ffffffffffffffffffffffffffffffffffffffff16600073ffffffffffffffffffffffffffffffffffffffff167fddf252ad1be2c89b69c2b068fc378daa952ba7f163c4a11628f55a4df523b3ef60405160405180910390a4620005e0600083836200080f60201b60201c565b5050565b6000620006128473ffffffffffffffffffffffffffffffffffffffff166200081460201b620012c11760201c565b1562000791578373ffffffffffffffffffffffffffffffffffffffff1663150b7a02620006446200013660201b60201c565b8786866040518563ffffffff1660e01b815260040162000668949392919062000a02565b602060405180830381600087803b1580156200068357600080fd5b505af1925050508015620006b757506040513d601f19601f82011682018060405250810190620006b49190620008fe565b60015b62000740573d8060008114620006ea576040519150601f19603f3d011682016040523d82523d6000602084013e620006ef565b606091505b5060008151141562000738576040517f08c379a00000000000000000000000000000000000000000000000000000000081526004016200072f9062000a56565b60405180910390fd5b805181602001fd5b63150b7a0260e01b7bffffffffffffffffffffffffffffffffffffffffffffffffffffffff1916817bffffffffffffffffffffffffffffffffffffffffffffffffffffffff19161491505062000796565b600190505b949350505050565b60008073ffffffffffffffffffffffffffffffffffffffff166003600084815260200190815260200160002060009054906101000a900473ffffffffffffffffffffffffffffffffffffffff1673ffffffffffffffffffffffffffffffffffffffff1614159050919050565b505050565b505050565b6000808273ffffffffffffffffffffffffffffffffffffffff163b119050919050565b828054620008459062000c21565b90600052602060002090601f016020900481019282620008695760008555620008b5565b82601f106200088457805160ff1916838001178555620008b5565b82800160010185558215620008b5579182015b82811115620008b457825182559160200191906001019062000897565b5b509050620008c49190620008c8565b5090565b5b80821115620008e3576000816000905550600101620008c9565b5090565b600081519050620008f88162000d67565b92915050565b6000602082840312156200091157600080fd5b60006200092184828501620008e7565b91505092915050565b620009358162000b81565b82525050565b6000620009488262000abc565b62000954818562000ac7565b93506200096681856020860162000beb565b620009718162000cb5565b840191505092915050565b60006200098b60328362000ad8565b9150620009988262000cc6565b604082019050919050565b6000620009b2601c8362000ad8565b9150620009bf8262000d15565b602082019050919050565b6000620009d960208362000ad8565b9150620009e68262000d3e565b602082019050919050565b620009fc8162000be1565b82525050565b600060808201905062000a1960008301876200092a565b62000a2860208301866200092a565b62000a376040830185620009f1565b818103606083015262000a4b81846200093b565b905095945050505050565b6000602082019050818103600083015262000a71816200097c565b9050919050565b6000602082019050818103600083015262000a9381620009a3565b9050919050565b6000602082019050818103600083015262000ab581620009ca565b9050919050565b600081519050919050565b600082825260208201905092915050565b600082825260208201905092915050565b600062000af68262000be1565b915062000b038362000be1565b9250827fffffffffffffffffffffffffffffffffffffffffffffffffffffffffffffffff0382111562000b3b5762000b3a62000c57565b5b828201905092915050565b600062000b538262000be1565b915062000b608362000be1565b92508282101562000b765762000b7562000c57565b5b828203905092915050565b600062000b8e8262000bc1565b9050919050565b60007fffffffff0000000000000000000000000000000000000000000000000000000082169050919050565b600073ffffffffffffffffffffffffffffffffffffffff82169050919050565b6000819050919050565b60005b8381101562000c0b57808201518184015260208101905062000bee565b8381111562000c1b576000848401525b50505050565b6000600282049050600182168062000c3a57607f821691505b6020821081141562000c515762000c5062000c86565b5b50919050565b7f4e487b7100000000000000000000000000000000000000000000000000000000600052601160045260246000fd5b7f4e487b7100000000000000000000000000000000000000000000000000000000600052602260045260246000fd5b6000601f19601f8301169050919050565b7f4552433732313a207472616e7366657220746f206e6f6e20455243373231526560008201527f63656976657220696d706c656d656e7465720000000000000000000000000000602082015250565b7f4552433732313a20746f6b656e20616c7265616479206d696e74656400000000600082015250565b7f4552433732313a206d696e7420746f20746865207a65726f2061646472657373600082015250565b62000d728162000b95565b811462000d7e57600080fd5b50565b61390b8062000d916000396000f3fe6080604052600436106101405760003560e01c8063715018a6116100b6578063c87b56dd1161006f578063c87b56dd14610446578063d5a776ca14610483578063d9ecad7b1461049f578063e985e9c5146104dc578063e98b7f4d14610519578063f2fde38b1461055a57610140565b8063715018a61461035e57806378927cd1146103755780638da5cb5b1461039e57806395d89b41146103c9578063a22cb465146103f4578063b88d4fde1461041d57610140565b806323b872dd1161010857806323b872dd1461023e5780632e1a7d4d1461026757806342842e0e1461029057806354637f21146102b95780636352211e146102e457806370a082311461032157610140565b806301ffc9a71461014557806306fdde0314610182578063081812fc146101ad578063095ea7b3146101ea57806318160ddd14610213575b600080fd5b34801561015157600080fd5b5061016c6004803603810190610167919061271d565b610583565b6040516101799190612bfa565b60405180910390f35b34801561018e57600080fd5b50610197610665565b6040516101a49190612c15565b60405180910390f35b3480156101b957600080fd5b506101d460048036038101906101cf919061276f565b6106f7565b6040516101e19190612b93565b60405180910390f35b3480156101f657600080fd5b50610211600480360381019061020c91906126e1565b61077c565b005b34801561021f57600080fd5b50610228610894565b6040516102359190612eb7565b60405180910390f35b34801561024a57600080fd5b50610265600480360381019061026091906125db565b6108a1565b005b34801561027357600080fd5b5061028e6004803603810190610289919061276f565b610901565b005b34801561029c57600080fd5b506102b760048036038101906102b291906125db565b6109c7565b005b3480156102c557600080fd5b506102ce6109e7565b6040516102db9190612eb7565b60405180910390f35b3480156102f057600080fd5b5061030b6004803603810190610306919061276f565b6109f1565b6040516103189190612b93565b60405180910390f35b34801561032d57600080fd5b5061034860048036038101906103439190612576565b610aa3565b6040516103559190612eb7565b60405180910390f35b34801561036a57600080fd5b50610373610b5b565b005b34801561038157600080fd5b5061039c6004803603810190610397919061276f565b610be3565b005b3480156103aa57600080fd5b506103b3610c69565b6040516103c09190612b93565b60405180910390f35b3480156103d557600080fd5b506103de610c92565b6040516103eb9190612c15565b60405180910390f35b34801561040057600080fd5b5061041b600480360381019061041691906126a5565b610d24565b005b34801561042957600080fd5b50610444600480360381019061043f919061262a565b610d3a565b005b34801561045257600080fd5b5061046d6004803603810190610468919061276f565b610d9c565b60405161047a9190612c15565b60405180910390f35b61049d6004803603810190610498919061276f565b610e43565b005b3480156104ab57600080fd5b506104c660048036038101906104c19190612798565b610f84565b6040516104d39190612eb7565b60405180910390f35b3480156104e857600080fd5b5061050360048036038101906104fe919061259f565b6110a5565b6040516105109190612bfa565b60405180910390f35b34801561052557600080fd5b50610540600480360381019061053b919061276f565b611139565b604051610551959493929190612ed2565b60405180910390f35b34801561056657600080fd5b50610581600480360381019061057c9190612576565b6111c9565b005b60007f80ac58cd000000000000000000000000000000000000000000000000000000007bffffffffffffffffffffffffffffffffffffffffffffffffffffffff1916827bffffffffffffffffffffffffffffffffffffffffffffffffffffffff1916148061064e57507f5b5e139f000000000000000000000000000000000000000000000000000000007bffffffffffffffffffffffffffffffffffffffffffffffffffffffff1916827bffffffffffffffffffffffffffffffffffffffffffffffffffffffff1916145b8061065e575061065d826112e4565b5b9050919050565b606060018054610674906131d3565b80601f01602080910402602001604051908101604052809291908181526020018280546106a0906131d3565b80156106ed5780601f106106c2576101008083540402835291602001916106ed565b820191906000526020600020905b8154815290600101906020018083116106d057829003601f168201915b5050505050905090565b60006107028261134e565b610741576040517f08c379a000000000000000000000000000000000000000000000000000000000815260040161073890612df7565b60405180910390fd5b6005600083815260200190815260200160002060009054906101000a900473ffffffffffffffffffffffffffffffffffffffff169050919050565b6000610787826109f1565b90508073ffffffffffffffffffffffffffffffffffffffff168373ffffffffffffffffffffffffffffffffffffffff1614156107f8576040517f08c379a00000000000000000000000000000000000000000000000000000000081526004016107ef90612e57565b60405180910390fd5b8073ffffffffffffffffffffffffffffffffffffffff166108176113ba565b73ffffffffffffffffffffffffffffffffffffffff1614806108465750610845816108406113ba565b6110a5565b5b610885576040517f08c379a000000000000000000000000000000000000000000000000000000000815260040161087c90612d77565b60405180910390fd5b61088f83836113c2565b505050565b6000600a80549050905090565b6108b26108ac6113ba565b8261147b565b6108f1576040517f08c379a00000000000000000000000000000000000000000000000000000000081526004016108e890612e77565b60405180910390fd5b6108fc838383611559565b505050565b6109096113ba565b73ffffffffffffffffffffffffffffffffffffffff16610927610c69565b73ffffffffffffffffffffffffffffffffffffffff161461097d576040517f08c379a000000000000000000000000000000000000000000000000000000000815260040161097490612e17565b60405180910390fd5b3373ffffffffffffffffffffffffffffffffffffffff166108fc829081150290604051600060405180830381858888f193505050501580156109c3573d6000803e3d6000fd5b5050565b6109e283838360405180602001604052806000815250610d3a565b505050565b6000600954905090565b6000806003600084815260200190815260200160002060009054906101000a900473ffffffffffffffffffffffffffffffffffffffff169050600073ffffffffffffffffffffffffffffffffffffffff168173ffffffffffffffffffffffffffffffffffffffff161415610a9a576040517f08c379a0000000000000000000000000000000000000000000000000000000008152600401610a9190612db7565b60405180910390fd5b80915050919050565b60008073ffffffffffffffffffffffffffffffffffffffff168273ffffffffffffffffffffffffffffffffffffffff161415610b14576040517f08c379a0000000000000000000000000000000000000000000000000000000008152600401610b0b90612d97565b60405180910390fd5b600460008373ffffffffffffffffffffffffffffffffffffffff1673ffffffffffffffffffffffffffffffffffffffff168152602001908152602001600020549050919050565b610b636113ba565b73ffffffffffffffffffffffffffffffffffffffff16610b81610c69565b73ffffffffffffffffffffffffffffffffffffffff1614610bd7576040517f08c379a0000000000000000000000000000000000000000000000000000000008152600401610bce90612e17565b60405180910390fd5b610be160006117c0565b565b610beb6113ba565b73ffffffffffffffffffffffffffffffffffffffff16610c09610c69565b73ffffffffffffffffffffffffffffffffffffffff1614610c5f576040517f08c379a0000000000000000000000000000000000000000000000000000000008152600401610c5690612e17565b60405180910390fd5b8060098190555050565b60008060009054906101000a900473ffffffffffffffffffffffffffffffffffffffff16905090565b606060028054610ca1906131d3565b80601f0160208091040260200160405190810160405280929190818152602001828054610ccd906131d3565b8015610d1a5780601f10610cef57610100808354040283529160200191610d1a565b820191906000526020600020905b815481529060010190602001808311610cfd57829003601f168201915b5050505050905090565b610d36610d2f6113ba565b8383611884565b5050565b610d4b610d456113ba565b8361147b565b610d8a576040517f08c379a0000000000000000000000000000000000000000000000000000000008152600401610d8190612e77565b60405180910390fd5b610d96848484846119f1565b50505050565b6060610da78261134e565b610de6576040517f08c379a0000000000000000000000000000000000000000000000000000000008152600401610ddd90612e37565b60405180910390fd5b6000610df0611a4d565b90506000815111610e105760405180602001604052806000815250610e3b565b80610e1a84611a64565b604051602001610e2b929190612b6f565b6040516020818303038152906040525b915050919050565b600760009054906101000a900463ffffffff1663ffffffff1660085410610e9f576040517f08c379a0000000000000000000000000000000000000000000000000000000008152600401610e9690612cd7565b60405180910390fd5b610ea7610c69565b73ffffffffffffffffffffffffffffffffffffffff163373ffffffffffffffffffffffffffffffffffffffff16141580610f0d57503073ffffffffffffffffffffffffffffffffffffffff163373ffffffffffffffffffffffffffffffffffffffff1614155b8015610f1a575060095434145b610f59576040517f08c379a0000000000000000000000000000000000000000000000000000000008152600401610f5090612e97565b60405180910390fd5b60086000815480929190610f6c90613236565b9190505550610f8081600080336000611c11565b5050565b60003373ffffffffffffffffffffffffffffffffffffffff16610fa6846109f1565b73ffffffffffffffffffffffffffffffffffffffff1614610ffc576040517f08c379a0000000000000000000000000000000000000000000000000000000008152600401610ff390612c37565b60405180910390fd5b3373ffffffffffffffffffffffffffffffffffffffff1661101c836109f1565b73ffffffffffffffffffffffffffffffffffffffff1614611072576040517f08c379a000000000000000000000000000000000000000000000000000000000815260040161106990612d57565b60405180910390fd5b600061107e8484611d32565b9050600061108c8585611f95565b905061109b8286863385611c11565b9250505092915050565b6000600660008473ffffffffffffffffffffffffffffffffffffffff1673ffffffffffffffffffffffffffffffffffffffff16815260200190815260200160002060008373ffffffffffffffffffffffffffffffffffffffff1673ffffffffffffffffffffffffffffffffffffffff16815260200190815260200160002060009054906101000a900460ff16905092915050565b600080600080600080600a878154811061117c577f4e487b7100000000000000000000000000000000000000000000000000000000600052603260045260246000fd5b9060005260206000209060050201905080600001548160010154826002015483600301548460040160009054906101000a900463ffffffff16955095509550955095505091939590929450565b6111d16113ba565b73ffffffffffffffffffffffffffffffffffffffff166111ef610c69565b73ffffffffffffffffffffffffffffffffffffffff1614611245576040517f08c379a000000000000000000000000000000000000000000000000000000000815260040161123c90612e17565b60405180910390fd5b600073ffffffffffffffffffffffffffffffffffffffff168173ffffffffffffffffffffffffffffffffffffffff1614156112b5576040517f08c379a00000000000000000000000000000000000000000000000000000000081526004016112ac90612c77565b60405180910390fd5b6112be816117c0565b50565b6000808273ffffffffffffffffffffffffffffffffffffffff163b119050919050565b60007f01ffc9a7000000000000000000000000000000000000000000000000000000007bffffffffffffffffffffffffffffffffffffffffffffffffffffffff1916827bffffffffffffffffffffffffffffffffffffffffffffffffffffffff1916149050919050565b60008073ffffffffffffffffffffffffffffffffffffffff166003600084815260200190815260200160002060009054906101000a900473ffffffffffffffffffffffffffffffffffffffff1673ffffffffffffffffffffffffffffffffffffffff1614159050919050565b600033905090565b816005600083815260200190815260200160002060006101000a81548173ffffffffffffffffffffffffffffffffffffffff021916908373ffffffffffffffffffffffffffffffffffffffff160217905550808273ffffffffffffffffffffffffffffffffffffffff16611435836109f1565b73ffffffffffffffffffffffffffffffffffffffff167f8c5be1e5ebec7d5bd14f71427d1e84f3dd0314c0f7b2291e5b200ac8c7c3b92560405160405180910390a45050565b60006114868261134e565b6114c5576040517f08c379a00000000000000000000000000000000000000000000000000000000081526004016114bc90612d37565b60405180910390fd5b60006114d0836109f1565b90508073ffffffffffffffffffffffffffffffffffffffff168473ffffffffffffffffffffffffffffffffffffffff16148061153f57508373ffffffffffffffffffffffffffffffffffffffff16611527846106f7565b73ffffffffffffffffffffffffffffffffffffffff16145b80611550575061154f81856110a5565b5b91505092915050565b8273ffffffffffffffffffffffffffffffffffffffff16611579826109f1565b73ffffffffffffffffffffffffffffffffffffffff16146115cf576040517f08c379a00000000000000000000000000000000000000000000000000000000081526004016115c690612c97565b60405180910390fd5b600073ffffffffffffffffffffffffffffffffffffffff168273ffffffffffffffffffffffffffffffffffffffff16141561163f576040517f08c379a000000000000000000000000000000000000000000000000000000000815260040161163690612cf7565b60405180910390fd5b61164a83838361208e565b6116556000826113c2565b6001600460008573ffffffffffffffffffffffffffffffffffffffff1673ffffffffffffffffffffffffffffffffffffffff16815260200190815260200160002060008282546116a591906130d9565b925050819055506001600460008473ffffffffffffffffffffffffffffffffffffffff1673ffffffffffffffffffffffffffffffffffffffff16815260200190815260200160002060008282546116fc9190612fbe565b92505081905550816003600083815260200190815260200160002060006101000a81548173ffffffffffffffffffffffffffffffffffffffff021916908373ffffffffffffffffffffffffffffffffffffffff160217905550808273ffffffffffffffffffffffffffffffffffffffff168473ffffffffffffffffffffffffffffffffffffffff167fddf252ad1be2c89b69c2b068fc378daa952ba7f163c4a11628f55a4df523b3ef60405160405180910390a46117bb838383612093565b505050565b60008060009054906101000a900473ffffffffffffffffffffffffffffffffffffffff169050816000806101000a81548173ffffffffffffffffffffffffffffffffffffffff021916908373ffffffffffffffffffffffffffffffffffffffff1602179055508173ffffffffffffffffffffffffffffffffffffffff168173ffffffffffffffffffffffffffffffffffffffff167f8be0079c531659141344cd1fd0a4f28419497f9722a3daafe3b4186f6b6457e060405160405180910390a35050565b8173ffffffffffffffffffffffffffffffffffffffff168373ffffffffffffffffffffffffffffffffffffffff1614156118f3576040517f08c379a00000000000000000000000000000000000000000000000000000000081526004016118ea90612d17565b60405180910390fd5b80600660008573ffffffffffffffffffffffffffffffffffffffff1673ffffffffffffffffffffffffffffffffffffffff16815260200190815260200160002060008473ffffffffffffffffffffffffffffffffffffffff1673ffffffffffffffffffffffffffffffffffffffff16815260200190815260200160002060006101000a81548160ff0219169083151502179055508173ffffffffffffffffffffffffffffffffffffffff168373ffffffffffffffffffffffffffffffffffffffff167f17307eab39ab6107e8899845ad3d59bd9653f200f220920489ca2b5937696c31836040516119e49190612bfa565b60405180910390a3505050565b6119fc848484611559565b611a0884848484612098565b611a47576040517f08c379a0000000000000000000000000000000000000000000000000000000008152600401611a3e90612c57565b60405180910390fd5b50505050565b606060405180602001604052806000815250905090565b60606000821415611aac576040518060400160405280600181526020017f30000000000000000000000000000000000000000000000000000000000000008152509050611c0c565b600082905060005b60008214611ade578080611ac790613236565b915050600a82611ad7919061304e565b9150611ab4565b60008167ffffffffffffffff811115611b20577f4e487b7100000000000000000000000000000000000000000000000000000000600052604160045260246000fd5b6040519080825280601f01601f191660200182016040528015611b525781602001600182028036833780820191505090505b5090505b60008514611c0557600182611b6b91906130d9565b9150600a85611b7a919061327f565b6030611b869190612fbe565b60f81b818381518110611bc2577f4e487b7100000000000000000000000000000000000000000000000000000000600052603260045260246000fd5b60200101907effffffffffffffffffffffffffffffffffffffffffffffffffffffffffffff1916908160001a905350600a85611bfe919061304e565b9450611b56565b8093505050505b919050565b6000806040518060a001604052808881526020014281526020018781526020018681526020018463ffffffff168152509050600a8190806001815401808255809150506001900390600052602060002090600502016000909190919091506000820151816000015560208201518160010155604082015181600201556060820151816003015560808201518160040160006101000a81548163ffffffff021916908363ffffffff160217905550505060006001600a80549050611cd491906130d9565b9050611ce0858261222f565b808573ffffffffffffffffffffffffffffffffffffffff167fe3e9cb4c9675332e1e71c04808555c8071daa68327830cac01cc33d4087a64e960405160405180910390a3809250505095945050505050565b600080600a8481548110611d6f577f4e487b7100000000000000000000000000000000000000000000000000000000600052603260045260246000fd5b90600052602060002090600502016000015490506000600a8481548110611dbf577f4e487b7100000000000000000000000000000000000000000000000000000000600052603260045260246000fd5b9060005260206000209060050201600001549050611ddb612482565b600060ff42611dea919061327f565b90506000600790506000600190505b60808111611efd576000818460ff161614611e6257606486611e1b919061327f565b848360088110611e54577f4e487b7100000000000000000000000000000000000000000000000000000000600052603260045260246000fd5b602002018181525050611eb2565b606485611e6f919061327f565b848360088110611ea8577f4e487b7100000000000000000000000000000000000000000000000000000000600052603260045260246000fd5b6020020181815250505b606486611ebf919061304e565b9550606485611ece919061304e565b94506000821115611ee957600182611ee691906130d9565b91505b600281611ef6919061307f565b9050611df9565b50600080600090505b6008811015611f8557848160088110611f48577f4e487b7100000000000000000000000000000000000000000000000000000000600052603260045260246000fd5b602002015182611f589190612fbe565b915060078114611f7257606482611f6f919061307f565b91505b8080611f7d90613236565b915050611f06565b5080965050505050505092915050565b600080600a8481548110611fd2577f4e487b7100000000000000000000000000000000000000000000000000000000600052603260045260246000fd5b906000526020600020906005020160040160009054906101000a900463ffffffff1690506000600a8481548110612032577f4e487b7100000000000000000000000000000000000000000000000000000000600052603260045260246000fd5b906000526020600020906005020160040160009054906101000a900463ffffffff16905060008163ffffffff168363ffffffff1610156120725781612074565b825b90506001816120839190613014565b935050505092915050565b505050565b505050565b60006120b98473ffffffffffffffffffffffffffffffffffffffff166112c1565b15612222578373ffffffffffffffffffffffffffffffffffffffff1663150b7a026120e26113ba565b8786866040518563ffffffff1660e01b81526004016121049493929190612bae565b602060405180830381600087803b15801561211e57600080fd5b505af192505050801561214f57506040513d601f19601f8201168201806040525081019061214c9190612746565b60015b6121d2573d806000811461217f576040519150601f19603f3d011682016040523d82523d6000602084013e612184565b606091505b506000815114156121ca576040517f08c379a00000000000000000000000000000000000000000000000000000000081526004016121c190612c57565b60405180910390fd5b805181602001fd5b63150b7a0260e01b7bffffffffffffffffffffffffffffffffffffffffffffffffffffffff1916817bffffffffffffffffffffffffffffffffffffffffffffffffffffffff191614915050612227565b600190505b949350505050565b61224982826040518060200160405280600081525061224d565b5050565b61225783836122a8565b6122646000848484612098565b6122a3576040517f08c379a000000000000000000000000000000000000000000000000000000000815260040161229a90612c57565b60405180910390fd5b505050565b600073ffffffffffffffffffffffffffffffffffffffff168273ffffffffffffffffffffffffffffffffffffffff161415612318576040517f08c379a000000000000000000000000000000000000000000000000000000000815260040161230f90612dd7565b60405180910390fd5b6123218161134e565b15612361576040517f08c379a000000000000000000000000000000000000000000000000000000000815260040161235890612cb7565b60405180910390fd5b61236d6000838361208e565b6001600460008473ffffffffffffffffffffffffffffffffffffffff1673ffffffffffffffffffffffffffffffffffffffff16815260200190815260200160002060008282546123bd9190612fbe565b92505081905550816003600083815260200190815260200160002060006101000a81548173ffffffffffffffffffffffffffffffffffffffff021916908373ffffffffffffffffffffffffffffffffffffffff160217905550808273ffffffffffffffffffffffffffffffffffffffff16600073ffffffffffffffffffffffffffffffffffffffff167fddf252ad1be2c89b69c2b068fc378daa952ba7f163c4a11628f55a4df523b3ef60405160405180910390a461247e60008383612093565b5050565b604051806101000160405280600890602082028036833780820191505090505090565b60006124b86124b384612f4a565b612f25565b9050828152602081018484840111156124d057600080fd5b6124db848285613191565b509392505050565b6000813590506124f281613879565b92915050565b60008135905061250781613890565b92915050565b60008135905061251c816138a7565b92915050565b600081519050612531816138a7565b92915050565b600082601f83011261254857600080fd5b81356125588482602086016124a5565b91505092915050565b600081359050612570816138be565b92915050565b60006020828403121561258857600080fd5b6000612596848285016124e3565b91505092915050565b600080604083850312156125b257600080fd5b60006125c0858286016124e3565b92505060206125d1858286016124e3565b9150509250929050565b6000806000606084860312156125f057600080fd5b60006125fe868287016124e3565b935050602061260f868287016124e3565b925050604061262086828701612561565b9150509250925092565b6000806000806080858703121561264057600080fd5b600061264e878288016124e3565b945050602061265f878288016124e3565b935050604061267087828801612561565b925050606085013567ffffffffffffffff81111561268d57600080fd5b61269987828801612537565b91505092959194509250565b600080604083850312156126b857600080fd5b60006126c6858286016124e3565b92505060206126d7858286016124f8565b9150509250929050565b600080604083850312156126f457600080fd5b6000612702858286016124e3565b925050602061271385828601612561565b9150509250929050565b60006020828403121561272f57600080fd5b600061273d8482850161250d565b91505092915050565b60006020828403121561275857600080fd5b600061276684828501612522565b91505092915050565b60006020828403121561278157600080fd5b600061278f84828501612561565b91505092915050565b600080604083850312156127ab57600080fd5b60006127b985828601612561565b92505060206127ca85828601612561565b9150509250929050565b6127dd8161310d565b82525050565b6127ec8161311f565b82525050565b60006127fd82612f7b565b6128078185612f91565b93506128178185602086016131a0565b6128208161336c565b840191505092915050565b600061283682612f86565b6128408185612fa2565b93506128508185602086016131a0565b6128598161336c565b840191505092915050565b600061286f82612f86565b6128798185612fb3565b93506128898185602086016131a0565b80840191505092915050565b60006128a2601483612fa2565b91506128ad8261337d565b602082019050919050565b60006128c5603283612fa2565b91506128d0826133a6565b604082019050919050565b60006128e8602683612fa2565b91506128f3826133f5565b604082019050919050565b600061290b602583612fa2565b915061291682613444565b604082019050919050565b600061292e601c83612fa2565b915061293982613493565b602082019050919050565b6000612951601883612fa2565b915061295c826134bc565b602082019050919050565b6000612974602483612fa2565b915061297f826134e5565b604082019050919050565b6000612997601983612fa2565b91506129a282613534565b602082019050919050565b60006129ba602c83612fa2565b91506129c58261355d565b604082019050919050565b60006129dd601483612fa2565b91506129e8826135ac565b602082019050919050565b6000612a00603883612fa2565b9150612a0b826135d5565b604082019050919050565b6000612a23602a83612fa2565b9150612a2e82613624565b604082019050919050565b6000612a46602983612fa2565b9150612a5182613673565b604082019050919050565b6000612a69602083612fa2565b9150612a74826136c2565b602082019050919050565b6000612a8c602c83612fa2565b9150612a97826136eb565b604082019050919050565b6000612aaf602083612fa2565b9150612aba8261373a565b602082019050919050565b6000612ad2602f83612fa2565b9150612add82613763565b604082019050919050565b6000612af5602183612fa2565b9150612b00826137b2565b604082019050919050565b6000612b18603183612fa2565b9150612b2382613801565b604082019050919050565b6000612b3b600d83612fa2565b9150612b4682613850565b602082019050919050565b612b5a81613177565b82525050565b612b6981613181565b82525050565b6000612b7b8285612864565b9150612b878284612864565b91508190509392505050565b6000602082019050612ba860008301846127d4565b92915050565b6000608082019050612bc360008301876127d4565b612bd060208301866127d4565b612bdd6040830185612b51565b8181036060830152612bef81846127f2565b905095945050505050565b6000602082019050612c0f60008301846127e3565b92915050565b60006020820190508181036000830152612c2f818461282b565b905092915050565b60006020820190508181036000830152612c5081612895565b9050919050565b60006020820190508181036000830152612c70816128b8565b9050919050565b60006020820190508181036000830152612c90816128db565b9050919050565b60006020820190508181036000830152612cb0816128fe565b9050919050565b60006020820190508181036000830152612cd081612921565b9050919050565b60006020820190508181036000830152612cf081612944565b9050919050565b60006020820190508181036000830152612d1081612967565b9050919050565b60006020820190508181036000830152612d308161298a565b9050919050565b60006020820190508181036000830152612d50816129ad565b9050919050565b60006020820190508181036000830152612d70816129d0565b9050919050565b60006020820190508181036000830152612d90816129f3565b9050919050565b60006020820190508181036000830152612db081612a16565b9050919050565b60006020820190508181036000830152612dd081612a39565b9050919050565b60006020820190508181036000830152612df081612a5c565b9050919050565b60006020820190508181036000830152612e1081612a7f565b9050919050565b60006020820190508181036000830152612e3081612aa2565b9050919050565b60006020820190508181036000830152612e5081612ac5565b9050919050565b60006020820190508181036000830152612e7081612ae8565b9050919050565b60006020820190508181036000830152612e9081612b0b565b9050919050565b60006020820190508181036000830152612eb081612b2e565b9050919050565b6000602082019050612ecc6000830184612b51565b92915050565b600060a082019050612ee76000830188612b51565b612ef46020830187612b51565b612f016040830186612b51565b612f0e6060830185612b51565b612f1b6080830184612b60565b9695505050505050565b6000612f2f612f40565b9050612f3b8282613205565b919050565b6000604051905090565b600067ffffffffffffffff821115612f6557612f6461333d565b5b612f6e8261336c565b9050602081019050919050565b600081519050919050565b600081519050919050565b600082825260208201905092915050565b600082825260208201905092915050565b600081905092915050565b6000612fc982613177565b9150612fd483613177565b9250827fffffffffffffffffffffffffffffffffffffffffffffffffffffffffffffffff03821115613009576130086132b0565b5b828201905092915050565b600061301f82613181565b915061302a83613181565b92508263ffffffff03821115613043576130426132b0565b5b828201905092915050565b600061305982613177565b915061306483613177565b925082613074576130736132df565b5b828204905092915050565b600061308a82613177565b915061309583613177565b9250817fffffffffffffffffffffffffffffffffffffffffffffffffffffffffffffffff04831182151516156130ce576130cd6132b0565b5b828202905092915050565b60006130e482613177565b91506130ef83613177565b925082821015613102576131016132b0565b5b828203905092915050565b600061311882613157565b9050919050565b60008115159050919050565b60007fffffffff0000000000000000000000000000000000000000000000000000000082169050919050565b600073ffffffffffffffffffffffffffffffffffffffff82169050919050565b6000819050919050565b600063ffffffff82169050919050565b82818337600083830152505050565b60005b838110156131be5780820151818401526020810190506131a3565b838111156131cd576000848401525b50505050565b600060028204905060018216806131eb57607f821691505b602082108114156131ff576131fe61330e565b5b50919050565b61320e8261336c565b810181811067ffffffffffffffff8211171561322d5761322c61333d565b5b80604052505050565b600061324182613177565b91507fffffffffffffffffffffffffffffffffffffffffffffffffffffffffffffffff821415613274576132736132b0565b5b600182019050919050565b600061328a82613177565b915061329583613177565b9250826132a5576132a46132df565b5b828206905092915050565b7f4e487b7100000000000000000000000000000000000000000000000000000000600052601160045260246000fd5b7f4e487b7100000000000000000000000000000000000000000000000000000000600052601260045260246000fd5b7f4e487b7100000000000000000000000000000000000000000000000000000000600052602260045260246000fd5b7f4e487b7100000000000000000000000000000000000000000000000000000000600052604160045260246000fd5b6000601f19601f8301169050919050565b7f4e6f7420746865206f776e6572206f66206d6f6d000000000000000000000000600082015250565b7f4552433732313a207472616e7366657220746f206e6f6e20455243373231526560008201527f63656976657220696d706c656d656e7465720000000000000000000000000000602082015250565b7f4f776e61626c653a206e6577206f776e657220697320746865207a65726f206160008201527f6464726573730000000000000000000000000000000000000000000000000000602082015250565b7f4552433732313a207472616e736665722066726f6d20696e636f72726563742060008201527f6f776e6572000000000000000000000000000000000000000000000000000000602082015250565b7f4552433732313a20746f6b656e20616c7265616479206d696e74656400000000600082015250565b7f47656e30206372656174696f6e206f766572206c696d69740000000000000000600082015250565b7f4552433732313a207472616e7366657220746f20746865207a65726f2061646460008201527f7265737300000000000000000000000000000000000000000000000000000000602082015250565b7f4552433732313a20617070726f766520746f2063616c6c657200000000000000600082015250565b7f4552433732313a206f70657261746f7220717565727920666f72206e6f6e657860008201527f697374656e7420746f6b656e0000000000000000000000000000000000000000602082015250565b7f4e6f7420746865206f776e6572206f6620646164000000000000000000000000600082015250565b7f4552433732313a20617070726f76652063616c6c6572206973206e6f74206f7760008201527f6e6572206e6f7220617070726f76656420666f7220616c6c0000000000000000602082015250565b7f4552433732313a2062616c616e636520717565727920666f7220746865207a6560008201527f726f206164647265737300000000000000000000000000000000000000000000602082015250565b7f4552433732313a206f776e657220717565727920666f72206e6f6e657869737460008201527f656e7420746f6b656e0000000000000000000000000000000000000000000000602082015250565b7f4552433732313a206d696e7420746f20746865207a65726f2061646472657373600082015250565b7f4552433732313a20617070726f76656420717565727920666f72206e6f6e657860008201527f697374656e7420746f6b656e0000000000000000000000000000000000000000602082015250565b7f4f776e61626c653a2063616c6c6572206973206e6f7420746865206f776e6572600082015250565b7f4552433732314d657461646174613a2055524920717565727920666f72206e6f60008201527f6e6578697374656e7420746f6b656e0000000000000000000000000000000000602082015250565b7f4552433732313a20617070726f76616c20746f2063757272656e74206f776e6560008201527f7200000000000000000000000000000000000000000000000000000000000000602082015250565b7f4552433732313a207472616e736665722063616c6c6572206973206e6f74206f60008201527f776e6572206e6f7220617070726f766564000000000000000000000000000000602082015250565b7f496e76616c696420707269636500000000000000000000000000000000000000600082015250565b6138828161310d565b811461388d57600080fd5b50565b6138998161311f565b81146138a457600080fd5b50565b6138b08161312b565b81146138bb57600080fd5b50565b6138c781613177565b81146138d257600080fd5b5056fea2646970667358221220049009844de01561bbd793bc1953f7620b99a10e36ff1668c200dc08a620483764736f6c63430008040033",
  "linkReferences": {},
  "deployedLinkReferences": {}
}