{
  "_format": "hh-sol-artifact-1",
  "contractName": "KittyContract",
  "sourceName": "contracts/KittyContract.sol",
  "abi": [
    {
      "inputs": [],
      "stateMutability": "nonpayable",
      "type": "constructor"
    },
    {
      "anonymous": false,
      "inputs": [
        {
          "indexed": true,
          "internalType": "address",
          "name": "owner",
          "type": "address"
        },
        {
          "indexed": true,
          "internalType": "address",
          "name": "approved",
          "type": "address"
        },
        {
          "indexed": true,
          "internalType": "uint256",
          "name": "tokenId",
          "type": "uint256"
        }
      ],
      "name": "Approval",
      "type": "event"
    },
    {
      "anonymous": false,
      "inputs": [
        {
          "indexed": true,
          "internalType": "address",
          "name": "owner",
          "type": "address"
        },
        {
          "indexed": true,
          "internalType": "address",
          "name": "operator",
          "type": "address"
        },
        {
          "indexed": false,
          "internalType": "bool",
          "name": "approved",
          "type": "bool"
        }
      ],
      "name": "ApprovalForAll",
      "type": "event"
    },
    {
      "anonymous": false,
      "inputs": [
        {
          "indexed": true,
          "internalType": "address",
          "name": "owner",
          "type": "address"
        },
        {
          "indexed": true,
          "internalType": "uint256",
          "name": "kittyId",
          "type": "uint256"
        }
      ],
      "name": "Birth",
      "type": "event"
    },
    {
      "anonymous": false,
      "inputs": [
        {
          "indexed": true,
          "internalType": "address",
          "name": "previousOwner",
          "type": "address"
        },
        {
          "indexed": true,
          "internalType": "address",
          "name": "newOwner",
          "type": "address"
        }
      ],
      "name": "OwnershipTransferred",
      "type": "event"
    },
    {
      "anonymous": false,
      "inputs": [
        {
          "indexed": true,
          "internalType": "address",
          "name": "from",
          "type": "address"
        },
        {
          "indexed": true,
          "internalType": "address",
          "name": "to",
          "type": "address"
        },
        {
          "indexed": true,
          "internalType": "uint256",
          "name": "tokenId",
          "type": "uint256"
        }
      ],
      "name": "Transfer",
      "type": "event"
    },
    {
      "inputs": [
        {
          "internalType": "address",
          "name": "to",
          "type": "address"
        },
        {
          "internalType": "uint256",
          "name": "tokenId",
          "type": "uint256"
        }
      ],
      "name": "approve",
      "outputs": [],
      "stateMutability": "nonpayable",
      "type": "function"
    },
    {
      "inputs": [
        {
          "internalType": "address",
          "name": "owner",
          "type": "address"
        }
      ],
      "name": "balanceOf",
      "outputs": [
        {
          "internalType": "uint256",
          "name": "",
          "type": "uint256"
        }
      ],
      "stateMutability": "view",
      "type": "function"
    },
    {
      "inputs": [
        {
          "internalType": "uint256",
          "name": "momId",
          "type": "uint256"
        },
        {
          "internalType": "uint256",
          "name": "dadId",
          "type": "uint256"
        }
      ],
      "name": "breed",
      "outputs": [
        {
          "internalType": "uint256",
          "name": "",
          "type": "uint256"
        }
      ],
      "stateMutability": "nonpayable",
      "type": "function"
    },
    {
      "inputs": [
        {
          "internalType": "uint256",
          "name": "genes",
          "type": "uint256"
        }
      ],
      "name": "createKittyGen0",
      "outputs": [],
      "stateMutability": "nonpayable",
      "type": "function"
    },
    {
      "inputs": [
        {
          "internalType": "uint256",
          "name": "tokenId",
          "type": "uint256"
        }
      ],
      "name": "getApproved",
      "outputs": [
        {
          "internalType": "address",
          "name": "",
          "type": "address"
        }
      ],
      "stateMutability": "view",
      "type": "function"
    },
    {
      "inputs": [
        {
          "internalType": "uint256",
          "name": "kittyId",
          "type": "uint256"
        }
      ],
      "name": "getKitty",
      "outputs": [
        {
          "internalType": "uint256",
          "name": "genes",
          "type": "uint256"
        },
        {
          "internalType": "uint256",
          "name": "birthTime",
          "type": "uint256"
        },
        {
          "internalType": "uint256",
          "name": "momId",
          "type": "uint256"
        },
        {
          "internalType": "uint256",
          "name": "dadId",
          "type": "uint256"
        },
        {
          "internalType": "uint32",
          "name": "generation",
          "type": "uint32"
        }
      ],
      "stateMutability": "view",
      "type": "function"
    },
    {
      "inputs": [
        {
          "internalType": "uint256",
          "name": "genes",
          "type": "uint256"
        }
      ],
      "name": "getKittyByOwner",
      "outputs": [],
      "stateMutability": "nonpayable",
      "type": "function"
    },
    {
      "inputs": [
        {
          "internalType": "address",
          "name": "owner",
          "type": "address"
        },
        {
          "internalType": "address",
          "name": "operator",
          "type": "address"
        }
      ],
      "name": "isApprovedForAll",
      "outputs": [
        {
          "internalType": "bool",
          "name": "",
          "type": "bool"
        }
      ],
      "stateMutability": "view",
      "type": "function"
    },
    {
      "inputs": [],
      "name": "name",
      "outputs": [
        {
          "internalType": "string",
          "name": "",
          "type": "string"
        }
      ],
      "stateMutability": "view",
      "type": "function"
    },
    {
      "inputs": [],
      "name": "owner",
      "outputs": [
        {
          "internalType": "address",
          "name": "",
          "type": "address"
        }
      ],
      "stateMutability": "view",
      "type": "function"
    },
    {
      "inputs": [
        {
          "internalType": "uint256",
          "name": "tokenId",
          "type": "uint256"
        }
      ],
      "name": "ownerOf",
      "outputs": [
        {
          "internalType": "address",
          "name": "",
          "type": "address"
        }
      ],
      "stateMutability": "view",
      "type": "function"
    },
    {
      "inputs": [],
      "name": "renounceOwnership",
      "outputs": [],
      "stateMutability": "nonpayable",
      "type": "function"
    },
    {
      "inputs": [
        {
          "internalType": "address",
          "name": "from",
          "type": "address"
        },
        {
          "internalType": "address",
          "name": "to",
          "type": "address"
        },
        {
          "internalType": "uint256",
          "name": "tokenId",
          "type": "uint256"
        }
      ],
      "name": "safeTransferFrom",
      "outputs": [],
      "stateMutability": "nonpayable",
      "type": "function"
    },
    {
      "inputs": [
        {
          "internalType": "address",
          "name": "from",
          "type": "address"
        },
        {
          "internalType": "address",
          "name": "to",
          "type": "address"
        },
        {
          "internalType": "uint256",
          "name": "tokenId",
          "type": "uint256"
        },
        {
          "internalType": "bytes",
          "name": "_data",
          "type": "bytes"
        }
      ],
      "name": "safeTransferFrom",
      "outputs": [],
      "stateMutability": "nonpayable",
      "type": "function"
    },
    {
      "inputs": [
        {
          "internalType": "address",
          "name": "operator",
          "type": "address"
        },
        {
          "internalType": "bool",
          "name": "approved",
          "type": "bool"
        }
      ],
      "name": "setApprovalForAll",
      "outputs": [],
      "stateMutability": "nonpayable",
      "type": "function"
    },
    {
      "inputs": [
        {
          "internalType": "bytes4",
          "name": "interfaceId",
          "type": "bytes4"
        }
      ],
      "name": "supportsInterface",
      "outputs": [
        {
          "internalType": "bool",
          "name": "",
          "type": "bool"
        }
      ],
      "stateMutability": "view",
      "type": "function"
    },
    {
      "inputs": [],
      "name": "symbol",
      "outputs": [
        {
          "internalType": "string",
          "name": "",
          "type": "string"
        }
      ],
      "stateMutability": "view",
      "type": "function"
    },
    {
      "inputs": [
        {
          "internalType": "uint256",
          "name": "tokenId",
          "type": "uint256"
        }
      ],
      "name": "tokenURI",
      "outputs": [
        {
          "internalType": "string",
          "name": "",
          "type": "string"
        }
      ],
      "stateMutability": "view",
      "type": "function"
    },
    {
      "inputs": [],
      "name": "totalSupply",
      "outputs": [
        {
          "internalType": "uint256",
          "name": "",
          "type": "uint256"
        }
      ],
      "stateMutability": "view",
      "type": "function"
    },
    {
      "inputs": [
        {
          "internalType": "address",
          "name": "from",
          "type": "address"
        },
        {
          "internalType": "address",
          "name": "to",
          "type": "address"
        },
        {
          "internalType": "uint256",
          "name": "tokenId",
          "type": "uint256"
        }
      ],
      "name": "transferFrom",
      "outputs": [],
      "stateMutability": "nonpayable",
      "type": "function"
    },
    {
      "inputs": [
        {
          "internalType": "address",
          "name": "newOwner",
          "type": "address"
        }
      ],
      "name": "transferOwnership",
      "outputs": [],
      "stateMutability": "nonpayable",
      "type": "function"
    }
  ],
  "bytecode": "0x60806040526045600760006101000a81548163ffffffff021916908363ffffffff16021790555060006008553480156200003857600080fd5b506040518060400160405280600c81526020017f5265696e204b69747469657300000000000000000000000000000000000000008152506040518060400160405280600281526020017f524b000000000000000000000000000000000000000000000000000000000000815250620000c5620000b9620000ff60201b60201c565b6200010760201b60201c565b8160019080519060200190620000dd929190620001cb565b508060029080519060200190620000f6929190620001cb565b505050620002e0565b600033905090565b60008060009054906101000a900473ffffffffffffffffffffffffffffffffffffffff169050816000806101000a81548173ffffffffffffffffffffffffffffffffffffffff021916908373ffffffffffffffffffffffffffffffffffffffff1602179055508173ffffffffffffffffffffffffffffffffffffffff168173ffffffffffffffffffffffffffffffffffffffff167f8be0079c531659141344cd1fd0a4f28419497f9722a3daafe3b4186f6b6457e060405160405180910390a35050565b828054620001d9906200027b565b90600052602060002090601f016020900481019282620001fd576000855562000249565b82601f106200021857805160ff191683800117855562000249565b8280016001018555821562000249579182015b82811115620002485782518255916020019190600101906200022b565b5b5090506200025891906200025c565b5090565b5b80821115620002775760008160009055506001016200025d565b5090565b600060028204905060018216806200029457607f821691505b60208210811415620002ab57620002aa620002b1565b5b50919050565b7f4e487b7100000000000000000000000000000000000000000000000000000000600052602260045260246000fd5b6134da80620002f06000396000f3fe608060405234801561001057600080fd5b50600436106101375760003560e01c8063715018a6116100b8578063c87b56dd1161007c578063c87b56dd14610326578063d5a776ca14610356578063d9ecad7b14610372578063e985e9c5146103a2578063e98b7f4d146103d2578063f2fde38b1461040657610137565b8063715018a6146102a85780638da5cb5b146102b257806395d89b41146102d0578063a22cb465146102ee578063b88d4fde1461030a57610137565b806323b872dd116100ff57806323b872dd146101f45780632f74a2ea1461021057806342842e0e1461022c5780636352211e1461024857806370a082311461027857610137565b806301ffc9a71461013c57806306fdde031461016c578063081812fc1461018a578063095ea7b3146101ba57806318160ddd146101d6575b600080fd5b61015660048036038101906101519190612345565b610422565b6040516101639190612842565b60405180910390f35b610174610504565b604051610181919061285d565b60405180910390f35b6101a4600480360381019061019f9190612397565b610596565b6040516101b191906127db565b60405180910390f35b6101d460048036038101906101cf9190612309565b61061b565b005b6101de610733565b6040516101eb9190612adf565b60405180910390f35b61020e60048036038101906102099190612203565b610740565b005b61022a60048036038101906102259190612397565b6107a0565b005b61024660048036038101906102419190612203565b610827565b005b610262600480360381019061025d9190612397565b610847565b60405161026f91906127db565b60405180910390f35b610292600480360381019061028d919061219e565b6108f9565b60405161029f9190612adf565b60405180910390f35b6102b06109b1565b005b6102ba610a39565b6040516102c791906127db565b60405180910390f35b6102d8610a62565b6040516102e5919061285d565b60405180910390f35b610308600480360381019061030391906122cd565b610af4565b005b610324600480360381019061031f9190612252565b610b0a565b005b610340600480360381019061033b9190612397565b610b6c565b60405161034d919061285d565b60405180910390f35b610370600480360381019061036b9190612397565b610c13565b005b61038c600480360381019061038791906123c0565b610c9a565b6040516103999190612adf565b60405180910390f35b6103bc60048036038101906103b791906121c7565b610dbb565b6040516103c99190612842565b60405180910390f35b6103ec60048036038101906103e79190612397565b610e4f565b6040516103fd959493929190612afa565b60405180910390f35b610420600480360381019061041b919061219e565b610edf565b005b60007f80ac58cd000000000000000000000000000000000000000000000000000000007bffffffffffffffffffffffffffffffffffffffffffffffffffffffff1916827bffffffffffffffffffffffffffffffffffffffffffffffffffffffff191614806104ed57507f5b5e139f000000000000000000000000000000000000000000000000000000007bffffffffffffffffffffffffffffffffffffffffffffffffffffffff1916827bffffffffffffffffffffffffffffffffffffffffffffffffffffffff1916145b806104fd57506104fc82610fd7565b5b9050919050565b60606001805461051390612dc1565b80601f016020809104026020016040519081016040528092919081815260200182805461053f90612dc1565b801561058c5780601f106105615761010080835404028352916020019161058c565b820191906000526020600020905b81548152906001019060200180831161056f57829003601f168201915b5050505050905090565b60006105a182611041565b6105e0576040517f08c379a00000000000000000000000000000000000000000000000000000000081526004016105d790612a3f565b60405180910390fd5b6005600083815260200190815260200160002060009054906101000a900473ffffffffffffffffffffffffffffffffffffffff169050919050565b600061062682610847565b90508073ffffffffffffffffffffffffffffffffffffffff168373ffffffffffffffffffffffffffffffffffffffff161415610697576040517f08c379a000000000000000000000000000000000000000000000000000000000815260040161068e90612a9f565b60405180910390fd5b8073ffffffffffffffffffffffffffffffffffffffff166106b66110ad565b73ffffffffffffffffffffffffffffffffffffffff1614806106e557506106e4816106df6110ad565b610dbb565b5b610724576040517f08c379a000000000000000000000000000000000000000000000000000000000815260040161071b906129bf565b60405180910390fd5b61072e83836110b5565b505050565b6000600980549050905090565b61075161074b6110ad565b8261116e565b610790576040517f08c379a000000000000000000000000000000000000000000000000000000000815260040161078790612abf565b60405180910390fd5b61079b83838361124c565b505050565b600760009054906101000a900463ffffffff1663ffffffff16600854106107fc576040517f08c379a00000000000000000000000000000000000000000000000000000000081526004016107f39061291f565b60405180910390fd5b6008600081548092919061080f90612e24565b9190505550610823816000803360006114b3565b5050565b61084283838360405180602001604052806000815250610b0a565b505050565b6000806003600084815260200190815260200160002060009054906101000a900473ffffffffffffffffffffffffffffffffffffffff169050600073ffffffffffffffffffffffffffffffffffffffff168173ffffffffffffffffffffffffffffffffffffffff1614156108f0576040517f08c379a00000000000000000000000000000000000000000000000000000000081526004016108e7906129ff565b60405180910390fd5b80915050919050565b60008073ffffffffffffffffffffffffffffffffffffffff168273ffffffffffffffffffffffffffffffffffffffff16141561096a576040517f08c379a0000000000000000000000000000000000000000000000000000000008152600401610961906129df565b60405180910390fd5b600460008373ffffffffffffffffffffffffffffffffffffffff1673ffffffffffffffffffffffffffffffffffffffff168152602001908152602001600020549050919050565b6109b96110ad565b73ffffffffffffffffffffffffffffffffffffffff166109d7610a39565b73ffffffffffffffffffffffffffffffffffffffff1614610a2d576040517f08c379a0000000000000000000000000000000000000000000000000000000008152600401610a2490612a5f565b60405180910390fd5b610a3760006115d4565b565b60008060009054906101000a900473ffffffffffffffffffffffffffffffffffffffff16905090565b606060028054610a7190612dc1565b80601f0160208091040260200160405190810160405280929190818152602001828054610a9d90612dc1565b8015610aea5780601f10610abf57610100808354040283529160200191610aea565b820191906000526020600020905b815481529060010190602001808311610acd57829003601f168201915b5050505050905090565b610b06610aff6110ad565b8383611698565b5050565b610b1b610b156110ad565b8361116e565b610b5a576040517f08c379a0000000000000000000000000000000000000000000000000000000008152600401610b5190612abf565b60405180910390fd5b610b6684848484611805565b50505050565b6060610b7782611041565b610bb6576040517f08c379a0000000000000000000000000000000000000000000000000000000008152600401610bad90612a7f565b60405180910390fd5b6000610bc0611861565b90506000815111610be05760405180602001604052806000815250610c0b565b80610bea84611878565b604051602001610bfb92919061278b565b6040516020818303038152906040525b915050919050565b600760009054906101000a900463ffffffff1663ffffffff1660085410610c6f576040517f08c379a0000000000000000000000000000000000000000000000000000000008152600401610c669061291f565b60405180910390fd5b60086000815480929190610c8290612e24565b9190505550610c96816000803360006114b3565b5050565b60003373ffffffffffffffffffffffffffffffffffffffff16610cbc84610847565b73ffffffffffffffffffffffffffffffffffffffff1614610d12576040517f08c379a0000000000000000000000000000000000000000000000000000000008152600401610d099061287f565b60405180910390fd5b3373ffffffffffffffffffffffffffffffffffffffff16610d3283610847565b73ffffffffffffffffffffffffffffffffffffffff1614610d88576040517f08c379a0000000000000000000000000000000000000000000000000000000008152600401610d7f9061299f565b60405180910390fd5b6000610d948484611a25565b90506000610da28585611b85565b9050610db182868633856114b3565b9250505092915050565b6000600660008473ffffffffffffffffffffffffffffffffffffffff1673ffffffffffffffffffffffffffffffffffffffff16815260200190815260200160002060008373ffffffffffffffffffffffffffffffffffffffff1673ffffffffffffffffffffffffffffffffffffffff16815260200190815260200160002060009054906101000a900460ff16905092915050565b60008060008060008060098781548110610e92577f4e487b7100000000000000000000000000000000000000000000000000000000600052603260045260246000fd5b9060005260206000209060050201905080600001548160010154826002015483600301548460040160009054906101000a900463ffffffff16955095509550955095505091939590929450565b610ee76110ad565b73ffffffffffffffffffffffffffffffffffffffff16610f05610a39565b73ffffffffffffffffffffffffffffffffffffffff1614610f5b576040517f08c379a0000000000000000000000000000000000000000000000000000000008152600401610f5290612a5f565b60405180910390fd5b600073ffffffffffffffffffffffffffffffffffffffff168173ffffffffffffffffffffffffffffffffffffffff161415610fcb576040517f08c379a0000000000000000000000000000000000000000000000000000000008152600401610fc2906128bf565b60405180910390fd5b610fd4816115d4565b50565b60007f01ffc9a7000000000000000000000000000000000000000000000000000000007bffffffffffffffffffffffffffffffffffffffffffffffffffffffff1916827bffffffffffffffffffffffffffffffffffffffffffffffffffffffff1916149050919050565b60008073ffffffffffffffffffffffffffffffffffffffff166003600084815260200190815260200160002060009054906101000a900473ffffffffffffffffffffffffffffffffffffffff1673ffffffffffffffffffffffffffffffffffffffff1614159050919050565b600033905090565b816005600083815260200190815260200160002060006101000a81548173ffffffffffffffffffffffffffffffffffffffff021916908373ffffffffffffffffffffffffffffffffffffffff160217905550808273ffffffffffffffffffffffffffffffffffffffff1661112883610847565b73ffffffffffffffffffffffffffffffffffffffff167f8c5be1e5ebec7d5bd14f71427d1e84f3dd0314c0f7b2291e5b200ac8c7c3b92560405160405180910390a45050565b600061117982611041565b6111b8576040517f08c379a00000000000000000000000000000000000000000000000000000000081526004016111af9061297f565b60405180910390fd5b60006111c383610847565b90508073ffffffffffffffffffffffffffffffffffffffff168473ffffffffffffffffffffffffffffffffffffffff16148061123257508373ffffffffffffffffffffffffffffffffffffffff1661121a84610596565b73ffffffffffffffffffffffffffffffffffffffff16145b8061124357506112428185610dbb565b5b91505092915050565b8273ffffffffffffffffffffffffffffffffffffffff1661126c82610847565b73ffffffffffffffffffffffffffffffffffffffff16146112c2576040517f08c379a00000000000000000000000000000000000000000000000000000000081526004016112b9906128df565b60405180910390fd5b600073ffffffffffffffffffffffffffffffffffffffff168273ffffffffffffffffffffffffffffffffffffffff161415611332576040517f08c379a00000000000000000000000000000000000000000000000000000000081526004016113299061293f565b60405180910390fd5b61133d838383611c72565b6113486000826110b5565b6001600460008573ffffffffffffffffffffffffffffffffffffffff1673ffffffffffffffffffffffffffffffffffffffff16815260200190815260200160002060008282546113989190612cc7565b925050819055506001600460008473ffffffffffffffffffffffffffffffffffffffff1673ffffffffffffffffffffffffffffffffffffffff16815260200190815260200160002060008282546113ef9190612be6565b92505081905550816003600083815260200190815260200160002060006101000a81548173ffffffffffffffffffffffffffffffffffffffff021916908373ffffffffffffffffffffffffffffffffffffffff160217905550808273ffffffffffffffffffffffffffffffffffffffff168473ffffffffffffffffffffffffffffffffffffffff167fddf252ad1be2c89b69c2b068fc378daa952ba7f163c4a11628f55a4df523b3ef60405160405180910390a46114ae838383611c77565b505050565b6000806040518060a001604052808881526020014281526020018781526020018681526020018463ffffffff16815250905060098190806001815401808255809150506001900390600052602060002090600502016000909190919091506000820151816000015560208201518160010155604082015181600201556060820151816003015560808201518160040160006101000a81548163ffffffff021916908363ffffffff1602179055505050600060016009805490506115769190612cc7565b90506115828582611c7c565b808573ffffffffffffffffffffffffffffffffffffffff167fe3e9cb4c9675332e1e71c04808555c8071daa68327830cac01cc33d4087a64e960405160405180910390a3809250505095945050505050565b60008060009054906101000a900473ffffffffffffffffffffffffffffffffffffffff169050816000806101000a81548173ffffffffffffffffffffffffffffffffffffffff021916908373ffffffffffffffffffffffffffffffffffffffff1602179055508173ffffffffffffffffffffffffffffffffffffffff168173ffffffffffffffffffffffffffffffffffffffff167f8be0079c531659141344cd1fd0a4f28419497f9722a3daafe3b4186f6b6457e060405160405180910390a35050565b8173ffffffffffffffffffffffffffffffffffffffff168373ffffffffffffffffffffffffffffffffffffffff161415611707576040517f08c379a00000000000000000000000000000000000000000000000000000000081526004016116fe9061295f565b60405180910390fd5b80600660008573ffffffffffffffffffffffffffffffffffffffff1673ffffffffffffffffffffffffffffffffffffffff16815260200190815260200160002060008473ffffffffffffffffffffffffffffffffffffffff1673ffffffffffffffffffffffffffffffffffffffff16815260200190815260200160002060006101000a81548160ff0219169083151502179055508173ffffffffffffffffffffffffffffffffffffffff168373ffffffffffffffffffffffffffffffffffffffff167f17307eab39ab6107e8899845ad3d59bd9653f200f220920489ca2b5937696c31836040516117f89190612842565b60405180910390a3505050565b61181084848461124c565b61181c84848484611c9a565b61185b576040517f08c379a00000000000000000000000000000000000000000000000000000000081526004016118529061289f565b60405180910390fd5b50505050565b606060405180602001604052806000815250905090565b606060008214156118c0576040518060400160405280600181526020017f30000000000000000000000000000000000000000000000000000000000000008152509050611a20565b600082905060005b600082146118f25780806118db90612e24565b915050600a826118eb9190612c3c565b91506118c8565b60008167ffffffffffffffff811115611934577f4e487b7100000000000000000000000000000000000000000000000000000000600052604160045260246000fd5b6040519080825280601f01601f1916602001820160405280156119665781602001600182028036833780820191505090505b5090505b60008514611a195760018261197f9190612cc7565b9150600a8561198e9190612e77565b603061199a9190612be6565b60f81b8183815181106119d6577f4e487b7100000000000000000000000000000000000000000000000000000000600052603260045260246000fd5b60200101907effffffffffffffffffffffffffffffffffffffffffffffffffffffffffffff1916908160001a905350600a85611a129190612c3c565b945061196a565b8093505050505b919050565b60008060098481548110611a62577f4e487b7100000000000000000000000000000000000000000000000000000000600052603260045260246000fd5b9060005260206000209060050201600001549050600060098481548110611ab2577f4e487b7100000000000000000000000000000000000000000000000000000000600052603260045260246000fd5b90600052602060002090600502016000015490506000611ad0611e31565b9050600080600080841415611b31576305f5e10085611aef9190612c3c565b92506305f5e10086611b019190612e77565b91506305f5e10083611b139190612c6d565b90508181611b219190612be6565b9050809650505050505050611b7f565b6305f5e10086611b419190612c3c565b92506305f5e10085611b539190612e77565b91506305f5e10083611b659190612c6d565b90508181611b739190612be6565b90508096505050505050505b92915050565b60008060098481548110611bc2577f4e487b7100000000000000000000000000000000000000000000000000000000600052603260045260246000fd5b906000526020600020906005020160040160009054906101000a900463ffffffff169050600060098481548110611c22577f4e487b7100000000000000000000000000000000000000000000000000000000600052603260045260246000fd5b906000526020600020906005020160040160009054906101000a900463ffffffff16905060008163ffffffff168363ffffffff161015611c625781611c64565b825b905080935050505092915050565b505050565b505050565b611c96828260405180602001604052806000815250611e75565b5050565b6000611cbb8473ffffffffffffffffffffffffffffffffffffffff16611ed0565b15611e24578373ffffffffffffffffffffffffffffffffffffffff1663150b7a02611ce46110ad565b8786866040518563ffffffff1660e01b8152600401611d0694939291906127f6565b602060405180830381600087803b158015611d2057600080fd5b505af1925050508015611d5157506040513d601f19601f82011682018060405250810190611d4e919061236e565b60015b611dd4573d8060008114611d81576040519150601f19603f3d011682016040523d82523d6000602084013e611d86565b606091505b50600081511415611dcc576040517f08c379a0000000000000000000000000000000000000000000000000000000008152600401611dc39061289f565b60405180910390fd5b805181602001fd5b63150b7a0260e01b7bffffffffffffffffffffffffffffffffffffffffffffffffffffffff1916817bffffffffffffffffffffffffffffffffffffffffffffffffffffffff191614915050611e29565b600190505b949350505050565b6000804442604051602001611e479291906127af565b6040516020818303038152906040528051906020012060001c9050600281611e6f9190612e77565b91505090565b611e7f8383611ef3565b611e8c6000848484611c9a565b611ecb576040517f08c379a0000000000000000000000000000000000000000000000000000000008152600401611ec29061289f565b60405180910390fd5b505050565b6000808273ffffffffffffffffffffffffffffffffffffffff163b119050919050565b600073ffffffffffffffffffffffffffffffffffffffff168273ffffffffffffffffffffffffffffffffffffffff161415611f63576040517f08c379a0000000000000000000000000000000000000000000000000000000008152600401611f5a90612a1f565b60405180910390fd5b611f6c81611041565b15611fac576040517f08c379a0000000000000000000000000000000000000000000000000000000008152600401611fa3906128ff565b60405180910390fd5b611fb860008383611c72565b6001600460008473ffffffffffffffffffffffffffffffffffffffff1673ffffffffffffffffffffffffffffffffffffffff16815260200190815260200160002060008282546120089190612be6565b92505081905550816003600083815260200190815260200160002060006101000a81548173ffffffffffffffffffffffffffffffffffffffff021916908373ffffffffffffffffffffffffffffffffffffffff160217905550808273ffffffffffffffffffffffffffffffffffffffff16600073ffffffffffffffffffffffffffffffffffffffff167fddf252ad1be2c89b69c2b068fc378daa952ba7f163c4a11628f55a4df523b3ef60405160405180910390a46120c960008383611c77565b5050565b60006120e06120db84612b72565b612b4d565b9050828152602081018484840111156120f857600080fd5b612103848285612d7f565b509392505050565b60008135905061211a81613448565b92915050565b60008135905061212f8161345f565b92915050565b60008135905061214481613476565b92915050565b60008151905061215981613476565b92915050565b600082601f83011261217057600080fd5b81356121808482602086016120cd565b91505092915050565b6000813590506121988161348d565b92915050565b6000602082840312156121b057600080fd5b60006121be8482850161210b565b91505092915050565b600080604083850312156121da57600080fd5b60006121e88582860161210b565b92505060206121f98582860161210b565b9150509250929050565b60008060006060848603121561221857600080fd5b60006122268682870161210b565b93505060206122378682870161210b565b925050604061224886828701612189565b9150509250925092565b6000806000806080858703121561226857600080fd5b60006122768782880161210b565b94505060206122878782880161210b565b935050604061229887828801612189565b925050606085013567ffffffffffffffff8111156122b557600080fd5b6122c18782880161215f565b91505092959194509250565b600080604083850312156122e057600080fd5b60006122ee8582860161210b565b92505060206122ff85828601612120565b9150509250929050565b6000806040838503121561231c57600080fd5b600061232a8582860161210b565b925050602061233b85828601612189565b9150509250929050565b60006020828403121561235757600080fd5b600061236584828501612135565b91505092915050565b60006020828403121561238057600080fd5b600061238e8482850161214a565b91505092915050565b6000602082840312156123a957600080fd5b60006123b784828501612189565b91505092915050565b600080604083850312156123d357600080fd5b60006123e185828601612189565b92505060206123f285828601612189565b9150509250929050565b61240581612cfb565b82525050565b61241481612d0d565b82525050565b600061242582612ba3565b61242f8185612bb9565b935061243f818560208601612d8e565b61244881612f64565b840191505092915050565b600061245e82612bae565b6124688185612bca565b9350612478818560208601612d8e565b61248181612f64565b840191505092915050565b600061249782612bae565b6124a18185612bdb565b93506124b1818560208601612d8e565b80840191505092915050565b60006124ca601483612bca565b91506124d582612f75565b602082019050919050565b60006124ed603283612bca565b91506124f882612f9e565b604082019050919050565b6000612510602683612bca565b915061251b82612fed565b604082019050919050565b6000612533602583612bca565b915061253e8261303c565b604082019050919050565b6000612556601c83612bca565b91506125618261308b565b602082019050919050565b6000612579601883612bca565b9150612584826130b4565b602082019050919050565b600061259c602483612bca565b91506125a7826130dd565b604082019050919050565b60006125bf601983612bca565b91506125ca8261312c565b602082019050919050565b60006125e2602c83612bca565b91506125ed82613155565b604082019050919050565b6000612605601483612bca565b9150612610826131a4565b602082019050919050565b6000612628603883612bca565b9150612633826131cd565b604082019050919050565b600061264b602a83612bca565b91506126568261321c565b604082019050919050565b600061266e602983612bca565b91506126798261326b565b604082019050919050565b6000612691602083612bca565b915061269c826132ba565b602082019050919050565b60006126b4602c83612bca565b91506126bf826132e3565b604082019050919050565b60006126d7602083612bca565b91506126e282613332565b602082019050919050565b60006126fa602f83612bca565b91506127058261335b565b604082019050919050565b600061271d602183612bca565b9150612728826133aa565b604082019050919050565b6000612740603183612bca565b915061274b826133f9565b604082019050919050565b61275f81612d65565b82525050565b61277661277182612d65565b612e6d565b82525050565b61278581612d6f565b82525050565b6000612797828561248c565b91506127a3828461248c565b91508190509392505050565b60006127bb8285612765565b6020820191506127cb8284612765565b6020820191508190509392505050565b60006020820190506127f060008301846123fc565b92915050565b600060808201905061280b60008301876123fc565b61281860208301866123fc565b6128256040830185612756565b8181036060830152612837818461241a565b905095945050505050565b6000602082019050612857600083018461240b565b92915050565b600060208201905081810360008301526128778184612453565b905092915050565b60006020820190508181036000830152612898816124bd565b9050919050565b600060208201905081810360008301526128b8816124e0565b9050919050565b600060208201905081810360008301526128d881612503565b9050919050565b600060208201905081810360008301526128f881612526565b9050919050565b6000602082019050818103600083015261291881612549565b9050919050565b600060208201905081810360008301526129388161256c565b9050919050565b600060208201905081810360008301526129588161258f565b9050919050565b60006020820190508181036000830152612978816125b2565b9050919050565b60006020820190508181036000830152612998816125d5565b9050919050565b600060208201905081810360008301526129b8816125f8565b9050919050565b600060208201905081810360008301526129d88161261b565b9050919050565b600060208201905081810360008301526129f88161263e565b9050919050565b60006020820190508181036000830152612a1881612661565b9050919050565b60006020820190508181036000830152612a3881612684565b9050919050565b60006020820190508181036000830152612a58816126a7565b9050919050565b60006020820190508181036000830152612a78816126ca565b9050919050565b60006020820190508181036000830152612a98816126ed565b9050919050565b60006020820190508181036000830152612ab881612710565b9050919050565b60006020820190508181036000830152612ad881612733565b9050919050565b6000602082019050612af46000830184612756565b92915050565b600060a082019050612b0f6000830188612756565b612b1c6020830187612756565b612b296040830186612756565b612b366060830185612756565b612b43608083018461277c565b9695505050505050565b6000612b57612b68565b9050612b638282612df3565b919050565b6000604051905090565b600067ffffffffffffffff821115612b8d57612b8c612f35565b5b612b9682612f64565b9050602081019050919050565b600081519050919050565b600081519050919050565b600082825260208201905092915050565b600082825260208201905092915050565b600081905092915050565b6000612bf182612d65565b9150612bfc83612d65565b9250827fffffffffffffffffffffffffffffffffffffffffffffffffffffffffffffffff03821115612c3157612c30612ea8565b5b828201905092915050565b6000612c4782612d65565b9150612c5283612d65565b925082612c6257612c61612ed7565b5b828204905092915050565b6000612c7882612d65565b9150612c8383612d65565b9250817fffffffffffffffffffffffffffffffffffffffffffffffffffffffffffffffff0483118215151615612cbc57612cbb612ea8565b5b828202905092915050565b6000612cd282612d65565b9150612cdd83612d65565b925082821015612cf057612cef612ea8565b5b828203905092915050565b6000612d0682612d45565b9050919050565b60008115159050919050565b60007fffffffff0000000000000000000000000000000000000000000000000000000082169050919050565b600073ffffffffffffffffffffffffffffffffffffffff82169050919050565b6000819050919050565b600063ffffffff82169050919050565b82818337600083830152505050565b60005b83811015612dac578082015181840152602081019050612d91565b83811115612dbb576000848401525b50505050565b60006002820490506001821680612dd957607f821691505b60208210811415612ded57612dec612f06565b5b50919050565b612dfc82612f64565b810181811067ffffffffffffffff82111715612e1b57612e1a612f35565b5b80604052505050565b6000612e2f82612d65565b91507fffffffffffffffffffffffffffffffffffffffffffffffffffffffffffffffff821415612e6257612e61612ea8565b5b600182019050919050565b6000819050919050565b6000612e8282612d65565b9150612e8d83612d65565b925082612e9d57612e9c612ed7565b5b828206905092915050565b7f4e487b7100000000000000000000000000000000000000000000000000000000600052601160045260246000fd5b7f4e487b7100000000000000000000000000000000000000000000000000000000600052601260045260246000fd5b7f4e487b7100000000000000000000000000000000000000000000000000000000600052602260045260246000fd5b7f4e487b7100000000000000000000000000000000000000000000000000000000600052604160045260246000fd5b6000601f19601f8301169050919050565b7f4e6f7420746865206f776e6572206f66206d6f6d000000000000000000000000600082015250565b7f4552433732313a207472616e7366657220746f206e6f6e20455243373231526560008201527f63656976657220696d706c656d656e7465720000000000000000000000000000602082015250565b7f4f776e61626c653a206e6577206f776e657220697320746865207a65726f206160008201527f6464726573730000000000000000000000000000000000000000000000000000602082015250565b7f4552433732313a207472616e736665722066726f6d20696e636f72726563742060008201527f6f776e6572000000000000000000000000000000000000000000000000000000602082015250565b7f4552433732313a20746f6b656e20616c7265616479206d696e74656400000000600082015250565b7f47656e30206372656174696f6e206f766572206c696d69740000000000000000600082015250565b7f4552433732313a207472616e7366657220746f20746865207a65726f2061646460008201527f7265737300000000000000000000000000000000000000000000000000000000602082015250565b7f4552433732313a20617070726f766520746f2063616c6c657200000000000000600082015250565b7f4552433732313a206f70657261746f7220717565727920666f72206e6f6e657860008201527f697374656e7420746f6b656e0000000000000000000000000000000000000000602082015250565b7f4e6f7420746865206f776e6572206f6620646164000000000000000000000000600082015250565b7f4552433732313a20617070726f76652063616c6c6572206973206e6f74206f7760008201527f6e6572206e6f7220617070726f76656420666f7220616c6c0000000000000000602082015250565b7f4552433732313a2062616c616e636520717565727920666f7220746865207a6560008201527f726f206164647265737300000000000000000000000000000000000000000000602082015250565b7f4552433732313a206f776e657220717565727920666f72206e6f6e657869737460008201527f656e7420746f6b656e0000000000000000000000000000000000000000000000602082015250565b7f4552433732313a206d696e7420746f20746865207a65726f2061646472657373600082015250565b7f4552433732313a20617070726f76656420717565727920666f72206e6f6e657860008201527f697374656e7420746f6b656e0000000000000000000000000000000000000000602082015250565b7f4f776e61626c653a2063616c6c6572206973206e6f7420746865206f776e6572600082015250565b7f4552433732314d657461646174613a2055524920717565727920666f72206e6f60008201527f6e6578697374656e7420746f6b656e0000000000000000000000000000000000602082015250565b7f4552433732313a20617070726f76616c20746f2063757272656e74206f776e6560008201527f7200000000000000000000000000000000000000000000000000000000000000602082015250565b7f4552433732313a207472616e736665722063616c6c6572206973206e6f74206f60008201527f776e6572206e6f7220617070726f766564000000000000000000000000000000602082015250565b61345181612cfb565b811461345c57600080fd5b50565b61346881612d0d565b811461347357600080fd5b50565b61347f81612d19565b811461348a57600080fd5b50565b61349681612d65565b81146134a157600080fd5b5056fea2646970667358221220ff8723e0d82e7f709b9daaeefd62a8ff7c6a209e09fd4d5ee5a2f7da88d8bdc264736f6c63430008040033",
  "linkReferences": {},
  "deployedLinkReferences": {}
}