{
  "_format": "hh-sol-artifact-1",
  "contractName": "MarketplaceContract",
  "sourceName": "contracts/MarketplaceContract.sol",
  "abi": [
    {
      "inputs": [
        {
          "internalType": "address",
          "name": "_kittyContractAddress",
          "type": "address"
        }
      ],
      "stateMutability": "nonpayable",
      "type": "constructor"
    },
    {
      "anonymous": false,
      "inputs": [
        {
          "indexed": true,
          "internalType": "bytes32",
          "name": "TxType",
          "type": "bytes32"
        },
        {
          "indexed": true,
          "internalType": "address",
          "name": "owner",
          "type": "address"
        },
        {
          "indexed": true,
          "internalType": "uint256",
          "name": "tokenId",
          "type": "uint256"
        }
      ],
      "name": "MarketTransaction",
      "type": "event"
    },
    {
      "anonymous": false,
      "inputs": [
        {
          "indexed": true,
          "internalType": "address",
          "name": "previousOwner",
          "type": "address"
        },
        {
          "indexed": true,
          "internalType": "address",
          "name": "newOwner",
          "type": "address"
        }
      ],
      "name": "OwnershipTransferred",
      "type": "event"
    },
    {
      "inputs": [
        {
          "internalType": "uint256",
          "name": "tokenId",
          "type": "uint256"
        }
      ],
      "name": "buyKitty",
      "outputs": [],
      "stateMutability": "payable",
      "type": "function"
    },
    {
      "inputs": [],
      "name": "getAllTokenOnSale",
      "outputs": [
        {
          "internalType": "uint256[]",
          "name": "listOfOffers",
          "type": "uint256[]"
        }
      ],
      "stateMutability": "view",
      "type": "function"
    },
    {
      "inputs": [
        {
          "internalType": "uint256",
          "name": "_tokenId",
          "type": "uint256"
        }
      ],
      "name": "getOffer",
      "outputs": [
        {
          "internalType": "address",
          "name": "seller",
          "type": "address"
        },
        {
          "internalType": "uint256",
          "name": "price",
          "type": "uint256"
        },
        {
          "internalType": "uint256",
          "name": "index",
          "type": "uint256"
        },
        {
          "internalType": "uint256",
          "name": "tokenId",
          "type": "uint256"
        },
        {
          "internalType": "bool",
          "name": "active",
          "type": "bool"
        }
      ],
      "stateMutability": "view",
      "type": "function"
    },
    {
      "inputs": [],
      "name": "owner",
      "outputs": [
        {
          "internalType": "address",
          "name": "",
          "type": "address"
        }
      ],
      "stateMutability": "view",
      "type": "function"
    },
    {
      "inputs": [
        {
          "internalType": "uint256",
          "name": "tokenId",
          "type": "uint256"
        }
      ],
      "name": "removeOffer",
      "outputs": [],
      "stateMutability": "nonpayable",
      "type": "function"
    },
    {
      "inputs": [],
      "name": "renounceOwnership",
      "outputs": [],
      "stateMutability": "nonpayable",
      "type": "function"
    },
    {
      "inputs": [
        {
          "internalType": "address",
          "name": "kittyContractAddress",
          "type": "address"
        }
      ],
      "name": "setKittyContract",
      "outputs": [],
      "stateMutability": "nonpayable",
      "type": "function"
    },
    {
      "inputs": [
        {
          "internalType": "uint256",
          "name": "price",
          "type": "uint256"
        },
        {
          "internalType": "uint256",
          "name": "tokenId",
          "type": "uint256"
        }
      ],
      "name": "setOffer",
      "outputs": [],
      "stateMutability": "nonpayable",
      "type": "function"
    },
    {
      "inputs": [
        {
          "internalType": "address",
          "name": "newOwner",
          "type": "address"
        }
      ],
      "name": "transferOwnership",
      "outputs": [],
      "stateMutability": "nonpayable",
      "type": "function"
    }
  ],
  "bytecode": "0x60806040523480156200001157600080fd5b5060405162001e1c38038062001e1c83398181016040528101906200003791906200024e565b620000576200004b6200006f60201b60201c565b6200007760201b60201c565b62000068816200013b60201b60201c565b506200034b565b600033905090565b60008060009054906101000a900473ffffffffffffffffffffffffffffffffffffffff169050816000806101000a81548173ffffffffffffffffffffffffffffffffffffffff021916908373ffffffffffffffffffffffffffffffffffffffff1602179055508173ffffffffffffffffffffffffffffffffffffffff168173ffffffffffffffffffffffffffffffffffffffff167f8be0079c531659141344cd1fd0a4f28419497f9722a3daafe3b4186f6b6457e060405160405180910390a35050565b6200014b6200006f60201b60201c565b73ffffffffffffffffffffffffffffffffffffffff16620001716200020e60201b60201c565b73ffffffffffffffffffffffffffffffffffffffff1614620001ca576040517f08c379a0000000000000000000000000000000000000000000000000000000008152600401620001c190620002a1565b60405180910390fd5b80600160006101000a81548173ffffffffffffffffffffffffffffffffffffffff021916908373ffffffffffffffffffffffffffffffffffffffff16021790555050565b60008060009054906101000a900473ffffffffffffffffffffffffffffffffffffffff16905090565b600081519050620002488162000331565b92915050565b6000602082840312156200026157600080fd5b6000620002718482850162000237565b91505092915050565b600062000289602083620002c3565b9150620002968262000308565b602082019050919050565b60006020820190508181036000830152620002bc816200027a565b9050919050565b600082825260208201905092915050565b6000620002e182620002e8565b9050919050565b600073ffffffffffffffffffffffffffffffffffffffff82169050919050565b7f4f776e61626c653a2063616c6c6572206973206e6f7420746865206f776e6572600082015250565b6200033c81620002d4565b81146200034857600080fd5b50565b611ac1806200035b6000396000f3fe6080604052600436106100865760003560e01c80638da5cb5b116100595780638da5cb5b14610137578063941b055b1461016257806395a0f9c71461018b578063ae5310f6146101b4578063f2fde38b146101d057610086565b80634579268a1461008b57806349b3709f146100cc57806362b7f94e146100f7578063715018a614610120575b600080fd5b34801561009757600080fd5b506100b260048036038101906100ad9190611329565b6101f9565b6040516100c39594939291906115e2565b60405180910390f35b3480156100d857600080fd5b506100e1610271565b6040516100ee9190611635565b60405180910390f35b34801561010357600080fd5b5061011e600480360381019061011991906112ae565b610490565b005b34801561012c57600080fd5b50610135610550565b005b34801561014357600080fd5b5061014c6105d8565b6040516101599190611567565b60405180910390f35b34801561016e57600080fd5b5061018960048036038101906101849190611352565b610601565b005b34801561019757600080fd5b506101b260048036038101906101ad9190611329565b6109a2565b005b6101ce60048036038101906101c99190611329565b610c11565b005b3480156101dc57600080fd5b506101f760048036038101906101f291906112ae565b610fb3565b005b6000806000806000806003600088815260200190815260200160002090508060000160009054906101000a900473ffffffffffffffffffffffffffffffffffffffff168160010154826002015483600301548460040160009054906101000a900460ff16955095509550955095505091939590929450565b60606000600280549050905060008114156102fe57600067ffffffffffffffff8111156102c7577f4e487b7100000000000000000000000000000000000000000000000000000000600052604160045260246000fd5b6040519080825280602002602001820160405280156102f55781602001602082028036833780820191505090505b5091505061048d565b60008167ffffffffffffffff811115610340577f4e487b7100000000000000000000000000000000000000000000000000000000600052604160045260246000fd5b60405190808252806020026020018201604052801561036e5781602001602082028036833780820191505090505b50905060005b828110156104865760011515600282815481106103ba577f4e487b7100000000000000000000000000000000000000000000000000000000600052603260045260246000fd5b906000526020600020906005020160040160009054906101000a900460ff1615151415610473576002818154811061041b577f4e487b7100000000000000000000000000000000000000000000000000000000600052603260045260246000fd5b906000526020600020906005020160030154828281518110610466577f4e487b7100000000000000000000000000000000000000000000000000000000600052603260045260246000fd5b6020026020010181815250505b808061047e9061183a565b915050610374565b8193505050505b90565b6104986110ab565b73ffffffffffffffffffffffffffffffffffffffff166104b66105d8565b73ffffffffffffffffffffffffffffffffffffffff161461050c576040517f08c379a0000000000000000000000000000000000000000000000000000000008152600401610503906116f7565b60405180910390fd5b80600160006101000a81548173ffffffffffffffffffffffffffffffffffffffff021916908373ffffffffffffffffffffffffffffffffffffffff16021790555050565b6105586110ab565b73ffffffffffffffffffffffffffffffffffffffff166105766105d8565b73ffffffffffffffffffffffffffffffffffffffff16146105cc576040517f08c379a00000000000000000000000000000000000000000000000000000000081526004016105c3906116f7565b60405180910390fd5b6105d660006110b3565b565b60008060009054906101000a900473ffffffffffffffffffffffffffffffffffffffff16905090565b61060b3382611177565b61064a576040517f08c379a0000000000000000000000000000000000000000000000000000000008152600401610641906116d7565b60405180910390fd5b600015156003600083815260200190815260200160002060040160009054906101000a900460ff161515146106b4576040517f08c379a00000000000000000000000000000000000000000000000000000000081526004016106ab90611737565b60405180910390fd5b600160009054906101000a900473ffffffffffffffffffffffffffffffffffffffff1673ffffffffffffffffffffffffffffffffffffffff1663e985e9c533306040518363ffffffff1660e01b81526004016107119291906115b9565b60206040518083038186803b15801561072957600080fd5b505afa15801561073d573d6000803e3d6000fd5b505050506040513d601f19601f820116820180604052508101906107619190611300565b6107a0576040517f08c379a0000000000000000000000000000000000000000000000000000000008152600401610797906116b7565b60405180910390fd5b60006040518060a001604052803373ffffffffffffffffffffffffffffffffffffffff1681526020018481526020016002805490508152602001838152602001600115158152509050806003600084815260200190815260200160002060008201518160000160006101000a81548173ffffffffffffffffffffffffffffffffffffffff021916908373ffffffffffffffffffffffffffffffffffffffff16021790555060208201518160010155604082015181600201556060820151816003015560808201518160040160006101000a81548160ff021916908315150217905550905050600281908060018154018082558091505060019003906000526020600020906005020160009091909190915060008201518160000160006101000a81548173ffffffffffffffffffffffffffffffffffffffff021916908373ffffffffffffffffffffffffffffffffffffffff16021790555060208201518160010155604082015181600201556060820151816003015560808201518160040160006101000a81548160ff0219169083151502179055505050813373ffffffffffffffffffffffffffffffffffffffff167f437265617465206f6666657200000000000000000000000000000000000000007fff486fd58dea8db5b3413cb2f8e1058bf383d9cf0342df5283d7081a6d946ea560405160405180910390a4505050565b6000600360008381526020019081526020016000206040518060a00160405290816000820160009054906101000a900473ffffffffffffffffffffffffffffffffffffffff1673ffffffffffffffffffffffffffffffffffffffff1673ffffffffffffffffffffffffffffffffffffffff1681526020016001820154815260200160028201548152602001600382015481526020016004820160009054906101000a900460ff16151515158152505090503373ffffffffffffffffffffffffffffffffffffffff16816000015173ffffffffffffffffffffffffffffffffffffffff1614610ac5576040517f08c379a0000000000000000000000000000000000000000000000000000000008152600401610abc90611717565b60405180910390fd5b60036000838152602001908152602001600020600080820160006101000a81549073ffffffffffffffffffffffffffffffffffffffff02191690556001820160009055600282016000905560038201600090556004820160006101000a81549060ff0219169055505060006002600360008581526020019081526020016000206002015481548110610b80577f4e487b7100000000000000000000000000000000000000000000000000000000600052603260045260246000fd5b906000526020600020906005020160040160006101000a81548160ff021916908315150217905550813373ffffffffffffffffffffffffffffffffffffffff167f52656d6f7665206f6666657200000000000000000000000000000000000000007fff486fd58dea8db5b3413cb2f8e1058bf383d9cf0342df5283d7081a6d946ea560405160405180910390a45050565b6000600360008381526020019081526020016000206040518060a00160405290816000820160009054906101000a900473ffffffffffffffffffffffffffffffffffffffff1673ffffffffffffffffffffffffffffffffffffffff1673ffffffffffffffffffffffffffffffffffffffff1681526020016001820154815260200160028201548152602001600382015481526020016004820160009054906101000a900460ff161515151581525050905080602001513414610d08576040517f08c379a0000000000000000000000000000000000000000000000000000000008152600401610cff90611677565b60405180910390fd5b60016003600084815260200190815260200160002060040160006101000a81548160ff0219169083151502179055610d75576040517f08c379a0000000000000000000000000000000000000000000000000000000008152600401610d6c90611697565b60405180910390fd5b60036000838152602001908152602001600020600080820160006101000a81549073ffffffffffffffffffffffffffffffffffffffff02191690556001820160009055600282016000905560038201600090556004820160006101000a81549060ff0219169055505060006002600360008581526020019081526020016000206002015481548110610e30577f4e487b7100000000000000000000000000000000000000000000000000000000600052603260045260246000fd5b906000526020600020906005020160040160006101000a81548160ff021916908315150217905550600081602001511115610eb557806000015173ffffffffffffffffffffffffffffffffffffffff166108fc82602001519081150290604051600060405180830381858888f19350505050158015610eb3573d6000803e3d6000fd5b505b600160009054906101000a900473ffffffffffffffffffffffffffffffffffffffff1673ffffffffffffffffffffffffffffffffffffffff166323b872dd826000015133856040518463ffffffff1660e01b8152600401610f1893929190611582565b600060405180830381600087803b158015610f3257600080fd5b505af1158015610f46573d6000803e3d6000fd5b50505050813373ffffffffffffffffffffffffffffffffffffffff167f42757900000000000000000000000000000000000000000000000000000000007fff486fd58dea8db5b3413cb2f8e1058bf383d9cf0342df5283d7081a6d946ea560405160405180910390a45050565b610fbb6110ab565b73ffffffffffffffffffffffffffffffffffffffff16610fd96105d8565b73ffffffffffffffffffffffffffffffffffffffff161461102f576040517f08c379a0000000000000000000000000000000000000000000000000000000008152600401611026906116f7565b60405180910390fd5b600073ffffffffffffffffffffffffffffffffffffffff168173ffffffffffffffffffffffffffffffffffffffff16141561109f576040517f08c379a000000000000000000000000000000000000000000000000000000000815260040161109690611657565b60405180910390fd5b6110a8816110b3565b50565b600033905090565b60008060009054906101000a900473ffffffffffffffffffffffffffffffffffffffff169050816000806101000a81548173ffffffffffffffffffffffffffffffffffffffff021916908373ffffffffffffffffffffffffffffffffffffffff1602179055508173ffffffffffffffffffffffffffffffffffffffff168173ffffffffffffffffffffffffffffffffffffffff167f8be0079c531659141344cd1fd0a4f28419497f9722a3daafe3b4186f6b6457e060405160405180910390a35050565b60008273ffffffffffffffffffffffffffffffffffffffff16600160009054906101000a900473ffffffffffffffffffffffffffffffffffffffff1673ffffffffffffffffffffffffffffffffffffffff16636352211e846040518263ffffffff1660e01b81526004016111eb9190611757565b60206040518083038186803b15801561120357600080fd5b505afa158015611217573d6000803e3d6000fd5b505050506040513d601f19601f8201168201806040525081019061123b91906112d7565b73ffffffffffffffffffffffffffffffffffffffff1614905092915050565b60008135905061126981611a46565b92915050565b60008151905061127e81611a46565b92915050565b60008151905061129381611a5d565b92915050565b6000813590506112a881611a74565b92915050565b6000602082840312156112c057600080fd5b60006112ce8482850161125a565b91505092915050565b6000602082840312156112e957600080fd5b60006112f78482850161126f565b91505092915050565b60006020828403121561131257600080fd5b600061132084828501611284565b91505092915050565b60006020828403121561133b57600080fd5b600061134984828501611299565b91505092915050565b6000806040838503121561136557600080fd5b600061137385828601611299565b925050602061138485828601611299565b9150509250929050565b600061139a8383611549565b60208301905092915050565b6113af81611804565b82525050565b6113be816117bc565b82525050565b60006113cf82611782565b6113d9818561179a565b93506113e483611772565b8060005b838110156114155781516113fc888261138e565b97506114078361178d565b9250506001810190506113e8565b5085935050505092915050565b61142b816117ce565b82525050565b600061143e6026836117ab565b9150611449826118b2565b604082019050919050565b6000611461600f836117ab565b915061146c82611901565b602082019050919050565b6000611484600f836117ab565b915061148f8261192a565b602082019050919050565b60006114a76012836117ab565b91506114b282611953565b602082019050919050565b60006114ca600d836117ab565b91506114d58261197c565b602082019050919050565b60006114ed6020836117ab565b91506114f8826119a5565b602082019050919050565b6000611510600e836117ab565b915061151b826119ce565b602082019050919050565b60006115336024836117ab565b915061153e826119f7565b604082019050919050565b611552816117fa565b82525050565b611561816117fa565b82525050565b600060208201905061157c60008301846113b5565b92915050565b600060608201905061159760008301866113a6565b6115a460208301856113b5565b6115b16040830184611558565b949350505050565b60006040820190506115ce60008301856113b5565b6115db60208301846113b5565b9392505050565b600060a0820190506115f760008301886113b5565b6116046020830187611558565b6116116040830186611558565b61161e6060830185611558565b61162b6080830184611422565b9695505050505050565b6000602082019050818103600083015261164f81846113c4565b905092915050565b6000602082019050818103600083015261167081611431565b9050919050565b6000602082019050818103600083015261169081611454565b9050919050565b600060208201905081810360008301526116b081611477565b9050919050565b600060208201905081810360008301526116d08161149a565b9050919050565b600060208201905081810360008301526116f0816114bd565b9050919050565b60006020820190508181036000830152611710816114e0565b9050919050565b6000602082019050818103600083015261173081611503565b9050919050565b6000602082019050818103600083015261175081611526565b9050919050565b600060208201905061176c6000830184611558565b92915050565b6000819050602082019050919050565b600081519050919050565b6000602082019050919050565b600082825260208201905092915050565b600082825260208201905092915050565b60006117c7826117da565b9050919050565b60008115159050919050565b600073ffffffffffffffffffffffffffffffffffffffff82169050919050565b6000819050919050565b600061180f82611816565b9050919050565b600061182182611828565b9050919050565b6000611833826117da565b9050919050565b6000611845826117fa565b91507fffffffffffffffffffffffffffffffffffffffffffffffffffffffffffffffff82141561187857611877611883565b5b600182019050919050565b7f4e487b7100000000000000000000000000000000000000000000000000000000600052601160045260246000fd5b7f4f776e61626c653a206e6577206f776e657220697320746865207a65726f206160008201527f6464726573730000000000000000000000000000000000000000000000000000602082015250565b7f496e636f72726563742070726963650000000000000000000000000000000000600082015250565b7f4e6f20616374697665206f726465720000000000000000000000000000000000600082015250565b7f556e617070726f76656420666f7220616c6c0000000000000000000000000000600082015250565b7f4e6f7420746865206f776e657200000000000000000000000000000000000000600082015250565b7f4f776e61626c653a2063616c6c6572206973206e6f7420746865206f776e6572600082015250565b7f4e6f74207468652073656c6c6572000000000000000000000000000000000000600082015250565b7f596f752063616e27742073656c6c207477696365207468652073616d65206f6660008201527f6665722100000000000000000000000000000000000000000000000000000000602082015250565b611a4f816117bc565b8114611a5a57600080fd5b50565b611a66816117ce565b8114611a7157600080fd5b50565b611a7d816117fa565b8114611a8857600080fd5b5056fea2646970667358221220d9149cf572cfacc6b1a615861a545d6a1886e0af80acb63dacf0c1c65d8d594664736f6c63430008040033",
  "linkReferences": {},
  "deployedLinkReferences": {}
}