{
  "_format": "hh-sol-artifact-1",
  "contractName": "Marketplace",
  "sourceName": "contracts/Marketplace.sol",
  "abi": [
    {
      "inputs": [
        {
          "internalType": "address",
          "name": "_kittyContractAddress",
          "type": "address"
        }
      ],
      "stateMutability": "nonpayable",
      "type": "constructor"
    },
    {
      "anonymous": false,
      "inputs": [
        {
          "indexed": true,
          "internalType": "string",
          "name": "TxType",
          "type": "string"
        },
        {
          "indexed": true,
          "internalType": "address",
          "name": "owner",
          "type": "address"
        },
        {
          "indexed": true,
          "internalType": "uint256",
          "name": "tokenId",
          "type": "uint256"
        }
      ],
      "name": "MarketTransaction",
      "type": "event"
    },
    {
      "anonymous": false,
      "inputs": [
        {
          "indexed": true,
          "internalType": "address",
          "name": "previousOwner",
          "type": "address"
        },
        {
          "indexed": true,
          "internalType": "address",
          "name": "newOwner",
          "type": "address"
        }
      ],
      "name": "OwnershipTransferred",
      "type": "event"
    },
    {
      "inputs": [
        {
          "internalType": "uint256",
          "name": "tokenId",
          "type": "uint256"
        }
      ],
      "name": "buyKitty",
      "outputs": [],
      "stateMutability": "payable",
      "type": "function"
    },
    {
      "inputs": [],
      "name": "getAllTokenOnSale",
      "outputs": [
        {
          "internalType": "uint256[]",
          "name": "listOfOffers",
          "type": "uint256[]"
        }
      ],
      "stateMutability": "view",
      "type": "function"
    },
    {
      "inputs": [
        {
          "internalType": "uint256",
          "name": "_tokenId",
          "type": "uint256"
        }
      ],
      "name": "getOffer",
      "outputs": [
        {
          "internalType": "address",
          "name": "seller",
          "type": "address"
        },
        {
          "internalType": "uint256",
          "name": "price",
          "type": "uint256"
        },
        {
          "internalType": "uint256",
          "name": "index",
          "type": "uint256"
        },
        {
          "internalType": "uint256",
          "name": "tokenId",
          "type": "uint256"
        },
        {
          "internalType": "bool",
          "name": "active",
          "type": "bool"
        }
      ],
      "stateMutability": "view",
      "type": "function"
    },
    {
      "inputs": [],
      "name": "owner",
      "outputs": [
        {
          "internalType": "address",
          "name": "",
          "type": "address"
        }
      ],
      "stateMutability": "view",
      "type": "function"
    },
    {
      "inputs": [
        {
          "internalType": "uint256",
          "name": "tokenId",
          "type": "uint256"
        }
      ],
      "name": "removeOffer",
      "outputs": [],
      "stateMutability": "nonpayable",
      "type": "function"
    },
    {
      "inputs": [],
      "name": "renounceOwnership",
      "outputs": [],
      "stateMutability": "nonpayable",
      "type": "function"
    },
    {
      "inputs": [
        {
          "internalType": "address",
          "name": "kittyContractAddress",
          "type": "address"
        }
      ],
      "name": "setKittyContract",
      "outputs": [],
      "stateMutability": "nonpayable",
      "type": "function"
    },
    {
      "inputs": [
        {
          "internalType": "uint256",
          "name": "price",
          "type": "uint256"
        },
        {
          "internalType": "uint256",
          "name": "tokenId",
          "type": "uint256"
        }
      ],
      "name": "setOffer",
      "outputs": [],
      "stateMutability": "nonpayable",
      "type": "function"
    },
    {
      "inputs": [
        {
          "internalType": "address",
          "name": "newOwner",
          "type": "address"
        }
      ],
      "name": "transferOwnership",
      "outputs": [],
      "stateMutability": "nonpayable",
      "type": "function"
    }
  ],
  "bytecode": "0x60806040523480156200001157600080fd5b5060405162001f2338038062001f2383398181016040528101906200003791906200024e565b620000576200004b6200006f60201b60201c565b6200007760201b60201c565b62000068816200013b60201b60201c565b506200034b565b600033905090565b60008060009054906101000a900473ffffffffffffffffffffffffffffffffffffffff169050816000806101000a81548173ffffffffffffffffffffffffffffffffffffffff021916908373ffffffffffffffffffffffffffffffffffffffff1602179055508173ffffffffffffffffffffffffffffffffffffffff168173ffffffffffffffffffffffffffffffffffffffff167f8be0079c531659141344cd1fd0a4f28419497f9722a3daafe3b4186f6b6457e060405160405180910390a35050565b6200014b6200006f60201b60201c565b73ffffffffffffffffffffffffffffffffffffffff16620001716200020e60201b60201c565b73ffffffffffffffffffffffffffffffffffffffff1614620001ca576040517f08c379a0000000000000000000000000000000000000000000000000000000008152600401620001c190620002a1565b60405180910390fd5b80600160006101000a81548173ffffffffffffffffffffffffffffffffffffffff021916908373ffffffffffffffffffffffffffffffffffffffff16021790555050565b60008060009054906101000a900473ffffffffffffffffffffffffffffffffffffffff16905090565b600081519050620002488162000331565b92915050565b6000602082840312156200026157600080fd5b6000620002718482850162000237565b91505092915050565b600062000289602083620002c3565b9150620002968262000308565b602082019050919050565b60006020820190508181036000830152620002bc816200027a565b9050919050565b600082825260208201905092915050565b6000620002e182620002e8565b9050919050565b600073ffffffffffffffffffffffffffffffffffffffff82169050919050565b7f4f776e61626c653a2063616c6c6572206973206e6f7420746865206f776e6572600082015250565b6200033c81620002d4565b81146200034857600080fd5b50565b611bc8806200035b6000396000f3fe6080604052600436106100865760003560e01c80638da5cb5b116100595780638da5cb5b14610137578063941b055b1461016257806395a0f9c71461018b578063ae5310f6146101b4578063f2fde38b146101d057610086565b80634579268a1461008b57806349b3709f146100cc57806362b7f94e146100f7578063715018a614610120575b600080fd5b34801561009757600080fd5b506100b260048036038101906100ad9190611302565b6101f9565b6040516100c3959493929190611663565b60405180910390f35b3480156100d857600080fd5b506100e1610271565b6040516100ee91906116b6565b60405180910390f35b34801561010357600080fd5b5061011e60048036038101906101199190611287565b610490565b005b34801561012c57600080fd5b50610135610550565b005b34801561014357600080fd5b5061014c6105d8565b60405161015991906115e8565b60405180910390f35b34801561016e57600080fd5b506101896004803603810190610184919061132b565b610601565b005b34801561019757600080fd5b506101b260048036038101906101ad9190611302565b610995565b005b6101ce60048036038101906101c99190611302565b610bf7565b005b3480156101dc57600080fd5b506101f760048036038101906101f29190611287565b610f8c565b005b6000806000806000806003600088815260200190815260200160002090508060000160009054906101000a900473ffffffffffffffffffffffffffffffffffffffff168160010154826002015483600301548460040160009054906101000a900460ff16955095509550955095505091939590929450565b60606000600280549050905060008114156102fe57600067ffffffffffffffff8111156102c7577f4e487b7100000000000000000000000000000000000000000000000000000000600052604160045260246000fd5b6040519080825280602002602001820160405280156102f55781602001602082028036833780820191505090505b5091505061048d565b60008167ffffffffffffffff811115610340577f4e487b7100000000000000000000000000000000000000000000000000000000600052604160045260246000fd5b60405190808252806020026020018201604052801561036e5781602001602082028036833780820191505090505b50905060005b828110156104865760011515600282815481106103ba577f4e487b7100000000000000000000000000000000000000000000000000000000600052603260045260246000fd5b906000526020600020906005020160040160009054906101000a900460ff1615151415610473576002818154811061041b577f4e487b7100000000000000000000000000000000000000000000000000000000600052603260045260246000fd5b906000526020600020906005020160030154828281518110610466577f4e487b7100000000000000000000000000000000000000000000000000000000600052603260045260246000fd5b6020026020010181815250505b808061047e906118c6565b915050610374565b8193505050505b90565b610498611084565b73ffffffffffffffffffffffffffffffffffffffff166104b66105d8565b73ffffffffffffffffffffffffffffffffffffffff161461050c576040517f08c379a000000000000000000000000000000000000000000000000000000000815260040161050390611778565b60405180910390fd5b80600160006101000a81548173ffffffffffffffffffffffffffffffffffffffff021916908373ffffffffffffffffffffffffffffffffffffffff16021790555050565b610558611084565b73ffffffffffffffffffffffffffffffffffffffff166105766105d8565b73ffffffffffffffffffffffffffffffffffffffff16146105cc576040517f08c379a00000000000000000000000000000000000000000000000000000000081526004016105c390611778565b60405180910390fd5b6105d6600061108c565b565b60008060009054906101000a900473ffffffffffffffffffffffffffffffffffffffff16905090565b61060b3382611150565b61064a576040517f08c379a000000000000000000000000000000000000000000000000000000000815260040161064190611758565b60405180910390fd5b600015156003600083815260200190815260200160002060040160009054906101000a900460ff161515146106b4576040517f08c379a00000000000000000000000000000000000000000000000000000000081526004016106ab906117b8565b60405180910390fd5b600160009054906101000a900473ffffffffffffffffffffffffffffffffffffffff1673ffffffffffffffffffffffffffffffffffffffff1663e985e9c533306040518363ffffffff1660e01b815260040161071192919061163a565b60206040518083038186803b15801561072957600080fd5b505afa15801561073d573d6000803e3d6000fd5b505050506040513d601f19601f8201168201806040525081019061076191906112d9565b6107a0576040517f08c379a000000000000000000000000000000000000000000000000000000000815260040161079790611738565b60405180910390fd5b60006040518060a001604052803373ffffffffffffffffffffffffffffffffffffffff1681526020018481526020016002805490508152602001838152602001600115158152509050806003600084815260200190815260200160002060008201518160000160006101000a81548173ffffffffffffffffffffffffffffffffffffffff021916908373ffffffffffffffffffffffffffffffffffffffff16021790555060208201518160010155604082015181600201556060820151816003015560808201518160040160006101000a81548160ff021916908315150217905550905050600281908060018154018082558091505060019003906000526020600020906005020160009091909190915060008201518160000160006101000a81548173ffffffffffffffffffffffffffffffffffffffff021916908373ffffffffffffffffffffffffffffffffffffffff16021790555060208201518160010155604082015181600201556060820151816003015560808201518160040160006101000a81548160ff0219169083151502179055505050813373ffffffffffffffffffffffffffffffffffffffff1660405161095c906115a9565b60405180910390207fd99e4fad9ad6313b1feb588fa8e605e3a9873172f2024330c35dd2b4041a438660405160405180910390a4505050565b6000600360008381526020019081526020016000206040518060a00160405290816000820160009054906101000a900473ffffffffffffffffffffffffffffffffffffffff1673ffffffffffffffffffffffffffffffffffffffff1673ffffffffffffffffffffffffffffffffffffffff1681526020016001820154815260200160028201548152602001600382015481526020016004820160009054906101000a900460ff16151515158152505090503373ffffffffffffffffffffffffffffffffffffffff16816000015173ffffffffffffffffffffffffffffffffffffffff1614610ab8576040517f08c379a0000000000000000000000000000000000000000000000000000000008152600401610aaf90611798565b60405180910390fd5b60036000838152602001908152602001600020600080820160006101000a81549073ffffffffffffffffffffffffffffffffffffffff02191690556001820160009055600282016000905560038201600090556004820160006101000a81549060ff0219169055505060006002600360008581526020019081526020016000206002015481548110610b73577f4e487b7100000000000000000000000000000000000000000000000000000000600052603260045260246000fd5b906000526020600020906005020160040160006101000a81548160ff021916908315150217905550813373ffffffffffffffffffffffffffffffffffffffff16604051610bbf906115d3565b60405180910390207fd99e4fad9ad6313b1feb588fa8e605e3a9873172f2024330c35dd2b4041a438660405160405180910390a45050565b6000600360008381526020019081526020016000206040518060a00160405290816000820160009054906101000a900473ffffffffffffffffffffffffffffffffffffffff1673ffffffffffffffffffffffffffffffffffffffff1673ffffffffffffffffffffffffffffffffffffffff1681526020016001820154815260200160028201548152602001600382015481526020016004820160009054906101000a900460ff161515151581525050905080602001513414610cee576040517f08c379a0000000000000000000000000000000000000000000000000000000008152600401610ce5906116f8565b60405180910390fd5b60016003600084815260200190815260200160002060040160006101000a81548160ff0219169083151502179055610d5b576040517f08c379a0000000000000000000000000000000000000000000000000000000008152600401610d5290611718565b60405180910390fd5b60036000838152602001908152602001600020600080820160006101000a81549073ffffffffffffffffffffffffffffffffffffffff02191690556001820160009055600282016000905560038201600090556004820160006101000a81549060ff0219169055505060006002600360008581526020019081526020016000206002015481548110610e16577f4e487b7100000000000000000000000000000000000000000000000000000000600052603260045260246000fd5b906000526020600020906005020160040160006101000a81548160ff021916908315150217905550600081602001511115610e9b57806000015173ffffffffffffffffffffffffffffffffffffffff166108fc82602001519081150290604051600060405180830381858888f19350505050158015610e99573d6000803e3d6000fd5b505b600160009054906101000a900473ffffffffffffffffffffffffffffffffffffffff1673ffffffffffffffffffffffffffffffffffffffff166323b872dd826000015133856040518463ffffffff1660e01b8152600401610efe93929190611603565b600060405180830381600087803b158015610f1857600080fd5b505af1158015610f2c573d6000803e3d6000fd5b50505050813373ffffffffffffffffffffffffffffffffffffffff16604051610f54906115be565b60405180910390207fd99e4fad9ad6313b1feb588fa8e605e3a9873172f2024330c35dd2b4041a438660405160405180910390a45050565b610f94611084565b73ffffffffffffffffffffffffffffffffffffffff16610fb26105d8565b73ffffffffffffffffffffffffffffffffffffffff1614611008576040517f08c379a0000000000000000000000000000000000000000000000000000000008152600401610fff90611778565b60405180910390fd5b600073ffffffffffffffffffffffffffffffffffffffff168173ffffffffffffffffffffffffffffffffffffffff161415611078576040517f08c379a000000000000000000000000000000000000000000000000000000000815260040161106f906116d8565b60405180910390fd5b6110818161108c565b50565b600033905090565b60008060009054906101000a900473ffffffffffffffffffffffffffffffffffffffff169050816000806101000a81548173ffffffffffffffffffffffffffffffffffffffff021916908373ffffffffffffffffffffffffffffffffffffffff1602179055508173ffffffffffffffffffffffffffffffffffffffff168173ffffffffffffffffffffffffffffffffffffffff167f8be0079c531659141344cd1fd0a4f28419497f9722a3daafe3b4186f6b6457e060405160405180910390a35050565b60008273ffffffffffffffffffffffffffffffffffffffff16600160009054906101000a900473ffffffffffffffffffffffffffffffffffffffff1673ffffffffffffffffffffffffffffffffffffffff16636352211e846040518263ffffffff1660e01b81526004016111c491906117d8565b60206040518083038186803b1580156111dc57600080fd5b505afa1580156111f0573d6000803e3d6000fd5b505050506040513d601f19601f8201168201806040525081019061121491906112b0565b73ffffffffffffffffffffffffffffffffffffffff1614905092915050565b60008135905061124281611b4d565b92915050565b60008151905061125781611b4d565b92915050565b60008151905061126c81611b64565b92915050565b60008135905061128181611b7b565b92915050565b60006020828403121561129957600080fd5b60006112a784828501611233565b91505092915050565b6000602082840312156112c257600080fd5b60006112d084828501611248565b91505092915050565b6000602082840312156112eb57600080fd5b60006112f98482850161125d565b91505092915050565b60006020828403121561131457600080fd5b600061132284828501611272565b91505092915050565b6000806040838503121561133e57600080fd5b600061134c85828601611272565b925050602061135d85828601611272565b9150509250929050565b6000611373838361158b565b60208301905092915050565b61138881611890565b82525050565b61139781611848565b82525050565b60006113a882611803565b6113b2818561181b565b93506113bd836117f3565b8060005b838110156113ee5781516113d58882611367565b97506113e08361180e565b9250506001810190506113c1565b5085935050505092915050565b6114048161185a565b82525050565b600061141760268361182c565b91506114228261193e565b604082019050919050565b600061143a600f8361182c565b91506114458261198d565b602082019050919050565b600061145d600f8361182c565b9150611468826119b6565b602082019050919050565b600061148060128361182c565b915061148b826119df565b602082019050919050565b60006114a3600d8361182c565b91506114ae82611a08565b602082019050919050565b60006114c6600c8361183d565b91506114d182611a31565b600c82019050919050565b60006114e960038361183d565b91506114f482611a5a565b600382019050919050565b600061150c60208361182c565b915061151782611a83565b602082019050919050565b600061152f600c8361183d565b915061153a82611aac565b600c82019050919050565b6000611552600e8361182c565b915061155d82611ad5565b602082019050919050565b600061157560248361182c565b915061158082611afe565b604082019050919050565b61159481611886565b82525050565b6115a381611886565b82525050565b60006115b4826114b9565b9150819050919050565b60006115c9826114dc565b9150819050919050565b60006115de82611522565b9150819050919050565b60006020820190506115fd600083018461138e565b92915050565b6000606082019050611618600083018661137f565b611625602083018561138e565b611632604083018461159a565b949350505050565b600060408201905061164f600083018561138e565b61165c602083018461138e565b9392505050565b600060a082019050611678600083018861138e565b611685602083018761159a565b611692604083018661159a565b61169f606083018561159a565b6116ac60808301846113fb565b9695505050505050565b600060208201905081810360008301526116d0818461139d565b905092915050565b600060208201905081810360008301526116f18161140a565b9050919050565b600060208201905081810360008301526117118161142d565b9050919050565b6000602082019050818103600083015261173181611450565b9050919050565b6000602082019050818103600083015261175181611473565b9050919050565b6000602082019050818103600083015261177181611496565b9050919050565b60006020820190508181036000830152611791816114ff565b9050919050565b600060208201905081810360008301526117b181611545565b9050919050565b600060208201905081810360008301526117d181611568565b9050919050565b60006020820190506117ed600083018461159a565b92915050565b6000819050602082019050919050565b600081519050919050565b6000602082019050919050565b600082825260208201905092915050565b600082825260208201905092915050565b600081905092915050565b600061185382611866565b9050919050565b60008115159050919050565b600073ffffffffffffffffffffffffffffffffffffffff82169050919050565b6000819050919050565b600061189b826118a2565b9050919050565b60006118ad826118b4565b9050919050565b60006118bf82611866565b9050919050565b60006118d182611886565b91507fffffffffffffffffffffffffffffffffffffffffffffffffffffffffffffffff8214156119045761190361190f565b5b600182019050919050565b7f4e487b7100000000000000000000000000000000000000000000000000000000600052601160045260246000fd5b7f4f776e61626c653a206e6577206f776e657220697320746865207a65726f206160008201527f6464726573730000000000000000000000000000000000000000000000000000602082015250565b7f496e636f72726563742070726963650000000000000000000000000000000000600082015250565b7f4e6f20616374697665206f726465720000000000000000000000000000000000600082015250565b7f556e617070726f76656420666f7220616c6c0000000000000000000000000000600082015250565b7f4e6f7420746865206f776e657200000000000000000000000000000000000000600082015250565b7f437265617465206f666665720000000000000000000000000000000000000000600082015250565b7f4275790000000000000000000000000000000000000000000000000000000000600082015250565b7f4f776e61626c653a2063616c6c6572206973206e6f7420746865206f776e6572600082015250565b7f52656d6f7665206f666665720000000000000000000000000000000000000000600082015250565b7f4e6f74207468652073656c6c6572000000000000000000000000000000000000600082015250565b7f596f752063616e27742073656c6c207477696365207468652073616d65206f6660008201527f6665722100000000000000000000000000000000000000000000000000000000602082015250565b611b5681611848565b8114611b6157600080fd5b50565b611b6d8161185a565b8114611b7857600080fd5b50565b611b8481611886565b8114611b8f57600080fd5b5056fea2646970667358221220b5bd4bf4d73f25c78619a46f7bb93a67f87b06ca32238e9880c7640e72322fe064736f6c63430008040033",
  "linkReferences": {},
  "deployedLinkReferences": {}
}